:020000040800F2
:100000000082002081020008F38D0008794B00086F
:10001000F18D0008050C0008F11301080000000034
:100020000000000000000000000000000DF00008CB
:100030000718000800000000FD8E00082DF20008DF
:10004000F3130108ED8E0008D1F200084196000874
:10005000051D00086994000821180008ED19000822
:10006000691A00087B1A00088D1A0008F9170008A1
:10007000FB170008FD170008FF170008011800080B
:100080000318000805180008D10B0008A1FC00089F
:10009000A3FC0008F5170008F7170008B91A0008B4
:1000A000D3F20008E9F20008E5F20008D5F20008F2
:1000B00029F30008F1F3000859F500087D4B00080A
:1000C0007B4B0008814B00087F4B000809F00008BB
:1000D0000BF00008C5F7000801F8000841F8000817
:1000E0007D190008759500089FFC000800F002F8D3
:1000F00000F064F80AA090E8000C82448344AAF15E
:100100000107DA4501D100F059F8AFF2090EBAE85B
:100110000F0013F0010F18BFFB1A43F0010318473B
:10012000604C0100804C01000A444FF0000C10F8B4
:10013000013B13F0070408BF10F8014B1D1108BF65
:1001400010F8015B641E05D010F8016B641E01F805
:10015000016BF9D113F0080F1EBF10F8014BAD1C55
:100160000C1B09D16D1E58BF01F801CBFAD505E073
:1001700014F8016B01F8016B6D1EF9D59142D6D3CD
:10018000704700000023002400250026103A28BFF5
:1001900078C1FBD8520728BF30C148BF0B607047F9
:1001A000642900F0BF80732900F05383002070475A
:1001B0001FB500F0A4F91FBD10B510BD00F04DFB38
:1001C0001146FFF7F5FF12F0FFFF00F06BFB03B4E1
:1001D000FFF7F2FF03BC11F014F900000B49D1F84E
:1001E00000C04A685CF8043B1068184442F8040BED
:1001F0008C4528BFA1F1DC0C8A4228BFA1F1DC02AA
:10020000C1F800C04A6020F000407047947B002095
:1002100030BF704720BF704740BF7047BFF36F8F3C
:100220007047BFF34F8F7047BFF35F8F704701DF99
:100230007047EFF31480704780F31488BFF36F8F1B
:100240007047EFF30980704780F309887047EFF338
:100250000880704780F30888704772B6704762B6AE
:10026000704771B6704761B6704780F31188704768
:10027000EFF31280704740BA704700BA7047000031
:100280000348004703480449044A054B70470000EF
:10029000ED000008007C002000820020007E00208D
:1002A000007E0020704700000FB41CB5074B06AA63
:1002B0007B4469460090059800F0A1FA0020694649
:1002C00000F0B0FA1CBC5DF814FB000071050000E2
:1002D00070B50C460546012A05D02878800600D561
:1002E000EA69002302E0012305E05B1C934202D28D
:1002F000E05C0028F9D1A869E618C01AA861286A4C
:10030000184428622846AFF3008004E0D5E90121B3
:1003100014F8010B9047B442F8D32846AFF300809D
:1003200070BD00002DE9F0410646002410687529D3
:10033000314616A510D0AFF30080002802DA404203
:1003400013A507E031688A0701D512A502E0490725
:1003500004D511A5012401E0AFF3008000210A2299
:1003600006F1240709E0B0FBF2FCB0FBF2F302FB5C
:100370001C00303078541846491C0028F3D123461D
:100380002A463046BDE8F04100F0DBB9000000002D
:100390002D0000002B000000200000002DE9F05F80
:1003A000894604464FF0000ADFF824B1FB44C0F848
:1003B00020A02046E168884700287DD0252806D067
:1003C000D4E901219047206A401C2062F1E7002512
:1003D0005F462046E16888472028064607DB312E25
:1003E00005D2B81910F8200C08B10543F1E7A807A9
:1003F00001D525F00405C4F81CA00027C4F818A0F6
:100400002A2E09D0304610F0F5FF38B304EB8708E8
:10041000303EC8F8186019E059F8041B204604EB78
:1004200087029161E1688847012F064618D1E0698B
:10043000002820DA25F020051DE0D8F8180000EB90
:10044000800006EB40003038C8F818002046E1680C
:100450008847064610F0CEFF0028EED1012F0AD0C3
:100460002E2E08D12046E16888477F1C0646022FC1
:1004700045F02005C4DBA069002803DA404245F0BE
:100480000105A061E80701D025F01005A6B1A6F18D
:100490004100192802D8203645F400654A46314605
:1004A000204625604D46FFF77BFE60B1012807D04E
:1004B000ED1D25F0070000E007E000F1080978E7EE
:1004C00005F1040975E730467AE7206ABDE8F09F38
:1004D000BC4901000B4910B5A1F17C020A4CC2E9EC
:1004E0003712372106E000EB104342F82130074B6A
:1004F00000FB03400B1EA1F10101F4DC10BD012043
:10050000E8E70000347B0020E119D666CD0D01003C
:1005100030B505460B462A4613F8014B12F8010B7D
:1005200008B1A042F8D01CB1002802D06D1CF1E740
:10053000284630BD40EA0103024630B59B0710D182
:100540004FF0013400E008C208C91D1B9D4315EAA5
:10055000C41FF8D013F0FF0102F8011B0DD01B0AD5
:10056000F8E711F8013B002B02F8013B05D011F828
:10057000013B002B02F8013BF3D130BD10B5431C09
:1005800002E010F8011B71B18107FAD14FF001327E
:1005900002C88C1A8C4314EAC211F9D0C01A0A0698
:1005A00003D0C01E10BDC01A10BD0A0401D0801EA9
:1005B00010BD0902FCD0401E10BD032A40F230805D
:1005C00010F0030C00F0158011F8013BBCF1020F94
:1005D000624498BF11F801CB00F8013B38BF11F815
:1005E000013BA2F1040298BF00F801CB38BF00F82C
:1005F000013B11F0030300F02580083AC0F00880A9
:1006000051F8043B083A51F804CBA0E80810F5E78C
:10061000121D5CBF51F8043B40F8043BAFF300806F
:10062000D20724BF11F8013B11F801CB48BF11F8E4
:10063000012B24BF00F8013B00F801CB48BF00F8B4
:10064000012B704710B5203AC0F00B80B1E818506C
:10065000203AA0E81850B1E81850A0E81850BFF4AC
:10066000F5AF5FEA027C24BFB1E81850A0E818504B
:1006700044BF18C918C0BDE810405FEA827C24BF9F
:1006800051F8043B40F8043B08BF7047D20728BF2D
:1006900031F8023B48BF11F8012B28BF20F8023B7C
:1006A00048BF00F8012B70474FF000020429C0F04A
:1006B000128010F0030C00F01B80CCF1040CBCF194
:1006C000020F18BF00F8012BA8BF20F8022BA1EBE6
:1006D0000C0100F00DB85FEAC17C24BF00F8012BCB
:1006E00000F8012B48BF00F8012B70474FF00002C3
:1006F00000B5134694469646203922BFA0E80C5018
:10070000A0E80C50B1F12001BFF4F7AF090728BFF2
:10071000A0E80C5048BF0CC05DF804EB890028BF6E
:1007200040F8042B08BF704748BF20F8022B11F097
:10073000804F18BF00F8012B704770477047704713
:1007400070472DE9F0470D4699469246044600F160
:1007500024080168880604D5E06921F010012160B1
:1007600000E00120A84201DD471B00E00027A1694D
:100770007A1902EB0900081AA0612078C00602D499
:100780002046AFF30080002608E0D4E901211AF8E2
:1007900006009047206A401C761C20624E45F4DB20
:1007A0002078C0060AD52046AFF3008006E0D4E9E1
:1007B000012130209047206A401C2062381EA7F19A
:1007C0000107F4DC07E0D4E9012118F8050090479F
:1007D000206A401C2062281EA5F10105F3DC20469A
:1007E000AFF300802078000602D50220BDE8F08734
:1007F0000120FBE701694A1C02610878704700B5D7
:100800008FB0CDE901310021059105497944CDE949
:10081000031011466846FFF7C1FD0FB000BD000090
:10082000E5FFFFFF0A6802F8010B0A60704710B588
:10083000436913B1AFF3008001E0FFF749FD0120E8
:1008400010BD127800F124010A7000224A700122C2
:10085000EDE711684FF0FF32E9E7754600F02CF83C
:10086000AE4605006946534620F00700854618B09D
:1008700020B5FFF707FDBDE820404FF000064FF020
:1008800000074FF000084FF0000B21F00701AC46C5
:10089000ACE8C009ACE8C009ACE8C009ACE8C009E4
:1008A0008D46704710B50446AFF300802046BDE882
:1008B0001040FFF78CBC0000004870479C7B002074
:1008C00070B52048808F41F60202104381B20F209C
:1008D00000F022F900BF0F2000F058F8044641F65E
:1008E00002000440002CF6D10E2000F04FF8044620
:1008F000C4F300150DB101F0B9F913488188012046
:1009000000F00AF91048C188022000F005F90D48EE
:10091000808F80B240F004010F2000F0FDF800BF8E
:100920000F2000F033F8044604F00404002CF7D143
:100930000E2000F02BF80446C4F300260EB101F09F
:1009400095F970BDAC4A0108244B010810B500248C
:1009500008E00C4830F8240081B2204600F0DCF8B2
:10096000601CC4B2102CF4DB002408E0064830F808
:10097000240081B2204600F0BBF8601CC4B20D2CEC
:10098000F4DB10BDAC4A0108EC4A010870B505461D
:1009900013F01AF80EF03CFB45F0800500241FE030
:1009A00005F0800028B14FF40041244804F091F88C
:1009B00004E04FF40041214804F089F800BF4FF4EF
:1009C00000511E4804F085F800BF072C04DA4FF4EC
:1009D00000511A4804F07BF86806050E601CC4B28A
:1009E000082CDDDB12F0E0FF4FF40051134804F057
:1009F0006EF800BF00241BE04FF400410F4804F0E4
:100A00005DF820B94FF6FF7000EA460603E00120CA
:100A100000EB460086B24FF40051084804F059F844
:100A200000BF4FF40051054804F051F8601CC4B2F7
:100A3000102CE1DB08F050FA304670BD000C01408C
:100A400010B50EF0E5FA702000F004F908F044FA51
:100A500010BD10B50EF0DCFAE02000F0FBF808F055
:100A60003BFA10BD10B50EF0D3FA602000F0F2F89A
:100A700008F032FA10BD2DE9F04704460EF0C8FA2E
:100A8000202000F0E7F8002504E0605D00F0E2F8C7
:100A9000681CC5B2042DF8DB08F01EFA0EF0B8FA97
:100AA000A02000F0D7F800F0AFF8074600F0ACF84F
:100AB000804600F0A9F8814600F0A6F806462078A6
:100AC000B84201D000BFFEE76078404501D000BFCA
:100AD000FEE7A078484501D000BFFEE7E078B042CD
:100AE00001D000BFFEE700BF08F0F6F9BDE8F087CF
:100AF00070B504460E4625460648808A40EA053011
:100B000085B22946052000F007F83146062000F09E
:100B100003F870BDAC4A010870B504460E4612F0E9
:100B200053FF0EF075FA00BF00251CE004F08000B2
:100B300028B14FF40041254803F0CBFF04E04FF407
:100B40000041224803F0C3FF4FF400511F4803F057
:100B5000C0FF00BF4FF400511C4803F0B8FF60060F
:100B6000040E681CC5B2082DE0DB00BF002520E0A4
:100B700006F4004028B14FF40041144803F0A9FFE7
:100B800004E04FF40041114803F0A1FF4FF400517D
:100B90000E4803F09EFF00BF0F2D04DA4FF4005102
:100BA0000A4803F094FF4FF6FF7000EA4606681CFF
:100BB000C5B2102DDCDB12F0F7FE4FF400510348F4
:100BC00003F085FF08F088F970BD0000000C0140BB
:100BD000704710B5012008F057FB002008F054FBC7
:100BE00010BD0000014602480844B0F8000C7047F0
:100BF00000600040024A0244A2F8001C7047000056
:100C0000006000407047000070B512F0CDFE002576
:100C100019E04FF400410E4803F050FF10B9600690
:100C2000040E03E0012000EB4400C4B24FF4005175
:100C3000074803F04EFF00BF4FF40051044803F093
:100C400046FF681CC5B2082DE3DB204670BD0000DE
:100C5000000C014070B5044612F0B6FE00251FE0FE
:100C600004F0800028B14FF40041124803F031FF36
:100C700004E04FF400410F4803F029FF00BF4FF498
:100C800000510C4803F025FF00BF072D04DA4FF494
:100C90000051084803F01BFF6006040E681CC5B233
:100CA000082DDDDB12F080FE4FF40051014803F007
:100CB0000EFF70BD000C0140F0B50246002000217F
:100CC00000231446A5780726B6EB551F04D0A57857
:100CD0000626B6EB551F7DD11679D57846EA05254F
:100CE000A9B20020D2E000EB800505EBC005694EFB
:100CF00036F825502688B5426DD100EB800505EB0E
:100D0000C005644E06EB85052D8DBDB900EB800551
:100D100005EBC00506EB8505298500EB800505EB95
:100D2000C00506EB85052D8E6D1C00EB800606EBDD
:100D3000C006584F07EB860635865DE000EB800560
:100D400005EBC005534E06EB85052D8D8D4221DA4E
:100D500000EB800505EBC00506EB85052D8D4D1BD1
:100D6000ABB200EB800505EBC00506EB85052D8ECB
:100D70001D4400EB800606EBC006464F07EB8606D7
:100D8000358600EB800505EBC0053E4606EB850584
:100D9000298531E000EB800505EBC0053D4E06EBF3
:100DA00085052D8D8D4227DD00EB800505EBC00507
:100DB00006EB85052D8D4FF6FF76751B0D44ABB206
:100DC00000EB800505EBC005324E06EB85052D8E48
:100DD0001D4401E05DE057E000EB800606EBC00635
:100DE0002C4F07EB8606358600EB800505EBC0052A
:100DF0003E4606EB8505298500EB800505EBC00521
:100E0000244E06EB850595F8225095B9012500EB97
:100E1000800606EBC0061F4F07EB860686F82250B9
:100E2000002500EB800606EBC00607EB8606756220
:100E30002AE000EB800505EBC005164E06EB8505A4
:100E40006D6AC5B1002B16DD00EB800505EBC00512
:100E500006EB8505ED6A00EB800606EBC0060D4F3C
:100E600007EB8606766A354400EB800606EBC00683
:100E700007EB8606F562002500EB800606EBC00650
:100E8000044F07EB86067562451CE8B22028FFF682
:100E90002AAFF0BDDC72002070B5014600200023AF
:100EA0000A4694780125B5EB541F02D09478640962
:100EB00074BB0D79CC7845EA0424A3B2002024E069
:100EC00000EB800404EBC004464D35F8244015883F
:100ED000AC4218D100EB800404EBC004414D05EB9B
:100EE00084042383012400EB800505EBC0053D4EFF
:100EF00006EB8505AC74002400EB800505EBC0050E
:100F000006EB85056C61441CE0B22028D8DB68E064
:100F100094780725B5EB541F04D094780625B5EBDB
:100F2000541F5ED10D79CC7845EA0424A3B2002089
:100F300055E000EB800404EBC0042A4D35F8244052
:100F40001588AC4249D1002400EB800505EBC005B3
:100F5000244E06EB8505AC7400EB800404EBC00462
:100F6000354605EB8404646974B300EB800404EB3C
:100F7000C00405EB8404248B9C4225D100EB800443
:100F800004EBC00405EB8404E46900EB800505EB89
:100F9000C00506EB85056D692C4400EB800505EB6B
:100FA000C00506EB8505EC6100EB800404EBC00492
:100FB000354605EB8404248C641C00EB800505EBAE
:100FC000C00506EB85052C84002400EB800505EBAD
:100FD000C005044E06EB85056C61441CE0B2202878
:100FE000A7DB70BDDC72002030B502460020114640
:100FF0008B780124B4EB531F03D08B785B09002B53
:101000007DD10020B7E000EB800303EBC003BF4CB1
:1010100034F823300C88A34212D1102811DA0123AE
:1010200000EB800404EBC004B84D05EB8404A3710D
:10103000002300EB800404EBC00405EB840423814F
:1010400097E010287DDB20287BDA0024A0F1100334
:1010500003EB830505EBC303AC4D05EB83039C71E8
:10106000A0F1100303EB830404EBC3032C4604EB51
:1010700083031B89002B71D0A0F1100303EB8304C1
:1010800004EBC3032C4604EB83031B8941F2883431
:10109000A34263DAA0F1100303EB830404EBC30360
:1010A0002C4604EB8303DC68A0F1100303EB8305FB
:1010B00005EBC303954D05EB83031B891C44A0F18D
:1010C000100303EB830505EBC303904D05EB83038E
:1010D000DC6000EB800303EBC0032C4604EB8303CE
:1010E000DC68A0F1100303EB830505EBC303874D18
:1010F00005EB83031B89234400EB800400E03EE002
:1011000004EBC00405EB8404E360A0F1100303EBDF
:10111000830404EBC3032C4604EB83031B8A5B1C90
:101120009CB2A0F1100303EB830505EBC303774DDD
:1011300005EB83031C8200EB800303EBC0032C460A
:1011400001E016E00AE004EB83031B8A5B1C00EB62
:10115000800404EBC00405EB840423820024A0F186
:10116000100303EB830505EBC303684D05EB830315
:101170001C81431CD8B22028FFF645AFC5E08B7810
:101180000724B4EB531F04D08B780624B4EB531F11
:1011900079D10020B6E000EB800303EBC0035B4C89
:1011A00034F823300C88A34212D1102811DA01231D
:1011B00000EB800404EBC004544D05EB8404E371A0
:1011C000002300EB800404EBC00405EB840463817E
:1011D00096E010287DDB20287BDA0024A0F11003A4
:1011E00003EB830505EBC303484D05EB8303DC717B
:1011F000A0F1100303EB830404EBC3032C4604EBC0
:1012000083035B89F3B3A0F1100303EB830404EBC6
:10121000C3032C4604EB83035B8941F28834A34269
:1012200063DAA0F1100303EB830404EBC3032C4641
:1012300004EB8303DC68A0F1100303EB830505EBEB
:10124000C303324D05EB83035B891C44A0F11003FB
:1012500003EB830505EBC3032C4D05EB8303DC6037
:1012600000EB800303EBC0032C4604EB8303DC6834
:10127000A0F1100303EB830505EBC303234D05EB3E
:10128000830301E031E040E05B89234400EB80040C
:1012900004EBC00405EB8404E360A0F1100303EB4E
:1012A000830404EBC3032C4604EB83031B8A5B1CFF
:1012B0009CB2A0F1100303EB830505EBC303134DB0
:1012C00005EB83031C8200EB800303EBC0032C4679
:1012D00000E015E004EB83031B8A5B1C00EB800439
:1012E00004EBC00405EB840423820024A0F1100366
:1012F00003EB830505EBC303044D05EB83035C811E
:10130000431CD8B22028FFF646AF30BDDC72002067
:1013100010B50146002000BF0AE031F8102000EBB4
:10132000800303EBC003044C24F82320421CD0B2FA
:101330002028F2DB10BD0000DC720020F0B5024670
:101340000020002100231446A5780726B6EB551F80
:1013500004D0A5780626B6EB551F7DD11679D57831
:1013600046EA0525A9B2002089E000EB800505EBDF
:10137000C005454E36F825502688B5427DD100EB94
:10138000800505EBC005404E06EB85056D88BDB9AF
:1013900000EB800505EBC00506EB8505698000EBD9
:1013A000800505EBC00506EB8505AD886D1C00EBDF
:1013B000800606EBC006344F07EB8606B5805CE07E
:1013C00000EB800505EBC0052F4E06EB85056D880B
:1013D0008D4221DA00EB800505EBC00506EB8505A3
:1013E0006D884D1BABB200EB800505EBC00506EB2D
:1013F0008505AD881D4400EB800606EBC006224F34
:1014000007EB8606B58000EB800505EBC0053E4680
:1014100006EB8505698030E000EB800505EBC00533
:10142000194E06EB85056D888D4226DD00EB8005A3
:1014300005EBC00506EB85056D884FF6FF76751B3D
:101440000D44ABB200EB800505EBC0050E4E06EB7C
:101450008505AD881D4400E014E000EB800606EB36
:10146000C006094F07EB8606B58000EB800505EB4B
:10147000C0053E4606EB85056980451CE8B220287C
:10148000FFF673AFF0BD0000DC720020F0B503463C
:101490000021002000240025002200BF2BE001EBEA
:1014A000810606EBC1061B4F37F826609E4220D10D
:1014B00001EB810606EBC10607EB8606328E00269D
:1014C00001EB810707EBC107DFF848C00CEB87078A
:1014D0003E8601EB810606EBC106674607EB8606F2
:1014E000F56A002601EB810707EBC1070CEB8707C4
:1014F000FE624E1CF1B22029D1DB4AB1B5FBF2F4F9
:101500004FF6FF76B44201D3304602E0A0B200E0CD
:101510000020F0BDDC720020F0B503460021002061
:1015200000240025002200BF2BE001EB810606EB22
:10153000C1061B4F37F826609E4220D101EB810681
:1015400006EBC10607EB8606328E002601EB81070B
:1015500007EBC107DFF848C00CEB87073E8601EBBD
:10156000810606EBC106674607EB8606F46A00268D
:1015700001EB810707EBC1070CEB8707FE624E1CEE
:10158000F1B22029D1DB4AB1B4FBF2F56FF000468D
:10159000B54201D3304602E0284600E00020F0BD0D
:1015A000DC720020F0B50346002100200024002555
:1015B000002200BF2BE001EB810606EBC1061A4FAB
:1015C00037F826609E4220D101EB810606EBC1066A
:1015D00007EB8606F569002601EB810707EBC107DB
:1015E000DFF844C00CEB8707FE6101EB810606EBD8
:1015F000C106674607EB8606328C002601EB8107A1
:1016000007EBC1070CEB87073E844E1CF1B2202983
:10161000D1DB42B1B5FBF2F44FF6FF76B44201D311
:10162000304600E0A0B2F0BDDC720020F0B5034609
:101630000021002000240025002200BF2BE001EB48
:10164000810606EBC1061A4F37F826609E4220D16C
:1016500001EB810606EBC10607EB8606F56900265D
:1016600001EB810707EBC107DFF844C00CEB8707EC
:10167000FE6101EB810606EBC106674607EB8606B5
:10168000328C002601EB810707EBC1070CEB8707C3
:101690003E844E1CF1B22029D1DB42B1B5FBF2F4FD
:1016A0006FF00046B44201D3304600E02046F0BD62
:1016B000DC7200202DE9F04786B006460024A146E2
:1016C000A246002500BF2BE004EB840000EBC40021
:1016D0002F4931F82000B04220D104EB840000EB08
:1016E000C40001EB8000D0F80CA0002004EB8401C2
:1016F00001EBC401264A02EB8101C86004EB8400BF
:1017000000EBC400114601EB8000058A002004EBC9
:10171000840101EBC40102EB81010882601CC4B2A8
:10172000202CD1DB7DB3284612F0E5FD0746884624
:10173000504612F0E0FD0022164BCDE9000112F0F8
:1017400029FE3A464346CDE9020112F04FFCCDE9AD
:10175000040112F00DFC81460F49484612F086FF45
:10176000814649460D4812F081FF8146484612F0F5
:1017700045FF0B4A0B4BCDE9040112F00BFE074667
:1017800012F0F6FB8146484606B0BDE8F08700003F
:10179000DC7200200000F03F00007A44000040406E
:1017A000CDCCCCCCCCCC0C4030B5024600210020B6
:1017B00000BF1AE001EB810303EBC1030C4C34F8CA
:1017C000233093420FD101EB810303EBC10304EB00
:1017D00083039888002301EB810404EBC104044DCA
:1017E00005EB8404A3804B1CD9B22029E2DB30BD79
:1017F000DC72002070477047704770477047704731
:10180000704770477047704701B50098C008009056
:1018100002E00098401E009000980028F9D108BD11
:1018200010B5012000F0B0F900287DD00121494811
:1018300003F044F9002878D12021474803F049F902
:1018400046480078002870D00A20FFF79FF84449E6
:10185000444A1278885443490978C1EBC101424A8D
:1018600088184249097811F0B1FF3E480078C0EB72
:10187000C0003D490844407800285ED00F20FFF7A3
:1018800085F800F40070002857D136490978C1EB7B
:10189000C101354A881807F083F900284DD000208F
:1018A000334908802F490978C1EBC1012E4A8818B5
:1018B00011F0CAFA2B4A1278C2EBC2022A4BD01896
:1018C0002C4A51688847274A1278C2EBC202264B3D
:1018D000D018284AD1688847224A1278C2EBC2023F
:1018E000214BD018234A516988471E4A1278C2EB0F
:1018F000C2021D4BD0181F4A116A8847194909783E
:10190000C1EBC101184A881810F0B8FF15480078DB
:10191000401C1449087008460078182190FBF1F229
:1019200001FB12000F4901E012E00EE008701248BE
:10193000807D10B1102000F01FF90121054803F04F
:10194000BDF810B9072011F0FBFE012000F0D6F819
:1019500010BD000000080140000C014054000020B0
:1019600034080020EE0000208C0800202A0000200F
:10197000D0000020C4060020D007002010B54FF48E
:10198000806000F001F918B14FF4806000F0B6F803
:101990004FF4006000F0F8F818B14FF4006000F068
:1019A000ADF84FF4805000F0EFF818B14FF48050CC
:1019B00000F0A4F84FF4005000F0E6F818B14FF42E
:1019C000005000F09BF84FF4804000F0DDF818B1B3
:1019D0004FF4804000F092F84FF4004000F0D4F84B
:1019E00018B14FF4004000F089F810BD10B51A4846
:1019F0000078062805D111F07DFF012000F07EF867
:101A000022E015480078072807D11448007811F023
:101A1000B1FE012000F072F816E00F4800780328AC
:101A200012D00D48007804280ED00B480078052805
:101A30000AD10A4801780A48006811F019FF0949DB
:101A40000870012000F05AF80020034908700220B5
:101A500000F054F810BD000051000020500000209C
:101A60004C0000205200002010B5042000F08CF83B
:101A700010B1042000F042F810BD10B5082000F0AD
:101A800083F810B1082000F039F810BD10B510200F
:101A900000F07AF858B101E011F0E6F80448007857
:101AA000044909788842F7D1102000F027F810BDCA
:101AB000F0000020EE00002010B5402000F064F897
:101AC00010B1402000F01AF8802000F05DF810B14D
:101AD000802000F013F84FF4807000F055F818B132
:101AE0004FF4807000F00AF84FF4007000F04CF8EA
:101AF00018B14FF4007000F001F810BD0149086002
:101B000070470000140401401CB50121022002F0BE
:101B1000F3FE0220009000208DF804000C208DF8C8
:101B2000050001208DF80600684600F041F800210C
:101B3000084602F0E1FE0120009000208DF804002C
:101B40000C208DF8050001208DF80600684600F095
:101B50002FF80421022002F0CFFE10200090002078
:101B60008DF804000C208DF8050001208DF806008A
:101B7000684600F01DF81CBD024909680143014A8E
:101B80001160704710040140014600200022074BFD
:101B90001B6803EA0102054B14331B680B4013B1A9
:101BA0000AB1012000E0002070470000000401405D
:101BB0008179002946D02A49096802689143284A58
:101BC0001160111D096802689143254A121D1160B8
:101BD0000179244A1144D1F80014026811430279B2
:101BE000204B1A44C2F800141D49083109680268E4
:101BF00091431B4A08321160111D09680268914324
:101C0000174A0C321160417910290ED1111F096851
:101C100002681143124A08321160111D09680268F6
:101C200011430F4A0C32116018E041790D4A1144FA
:101C3000D1F800140268114342790A4B1A44C2F8E1
:101C400000140BE00179074A1144D1F8001402682E
:101C500091430279034B1A44C2F800147047000004
:101C6000000401400000014072B6704700BFFEE76B
:101C700062B670470149C86070470000002002400A
:101C800070B50546042440F6FF7000F0A3F8044642
:101C9000042C19D10D48006940F002000B4908617D
:101CA00008464561006940F04000086140F6FF7059
:101CB00000F090F80446012C06D00448006941F673
:101CC000FD71084001490861204670BD00200240B6
:101CD00004200B49C96801F0010109B101200EE09F
:101CE0000749C96801F0040109B1022007E004496D
:101CF000C96801F0100109B1032000E00420704719
:101D000000200240704700000348006940F0800056
:101D10000149086170470000002002400549096838
:101D200021F01001034A1160114609680143116056
:101D3000704700000020024070B505460E4604249E
:101D40000F2000F047F80446042C25D11348006901
:101D500040F00100114908612E800F2000F03AF890
:101D60000446042C0FD1300C68800F2000F032F8AC
:101D70000446012C10D00948006941F6FE71084064
:101D80000649086108E0012C06D00448006941F6C4
:101D9000FE71084001490861204670BD00200240E4
:101DA0000549096801F03801034A116011460968C4
:101DB00001431160704700000020024002480349BF
:101DC000486003484860704723016745002002408F
:101DD000AB89EFCD70B504460425FFF779FF0546C2
:101DE00005E00FF010FBFFF773FF0546641E012DA1
:101DF00001D1002CF5D104B90525284670BD00009D
:101E000010B504461148007878B16000104A32F8E5
:101E100010100120FEF780FE6000401C0C4A32F8D2
:101E200010100220FEF778FE0EE06000094A32F83A
:101E300010100120FEF770FE6000401C054A32F8C9
:101E400010100220FEF768FE10BD000026000020E2
:101E5000244B0108304B010810B500240C480078D1
:101E6000A0B90C480078012800D110BD02F078F824
:101E700004460CB10120F8E7012006490870002053
:101E800005490870054908700320EEE70120ECE7DA
:101E90001502002016020020A0020020A10200204E
:101EA00010B500240C480078A0B90C48007801282F
:101EB00000D110BD02F0F2FB04460CB10120F8E79E
:101EC000012006490870002005490870054908707E
:101ED0000320EEE70120ECE71502002016020020A7
:101EE000A0020020A102002010B58AB000244948B9
:101EF000007800287ED110208DF8040083208DF812
:101F0000050004208DF80600434800788DF807008E
:101F10004149491C02A8FEF70DFB3F48C17A8DF8E4
:101F2000121000F10C010DF11300FEF703FB3A480B
:101F3000017C8DF81710407C9DF8181060F30101AA
:101F40008DF818103448407C81089DF8180061F322
:101F500082008DF818003048407CC1089DF81800B8
:101F600061F3C3008DF818002B48407C01099DF8EF
:101F7000180061F304108DF818002748407C4109CF
:101F80009DF8180061F345108DF818002248407C38
:101F900081099DF8180061F386108DF818001E481D
:101FA000B0F81100C109BDF8180061F3CF1001A904
:101FB000ADF818001848C17C8DF81A10017D8DF815
:101FC0001B10B0F8151001A8ADF81C101248C17D07
:101FD0008DF81E10017E8DF81F10417E01A801773B
:101FE0000D48D0F81A10CDF821100C4801F074FCFF
:101FF000044600E00CE009490819212201A9FEF776
:10200000DCFA04F121000649088000200AB010BD66
:102010000120FBE715020020281000209F1400205B
:102020009C02002038B500240F480078C8B9102061
:102030008DF8000083208DF8010001208DF802004A
:102040000A4801F049FC044608482044BDF8001045
:1020500001809DF802108170E01C05490880002075
:1020600038BD0120FCE70000150200209F1400206D
:102070009C02002030B585B000240025142168465C
:10208000FEF734FB1B480078002830D110208DF873
:10209000000083208DF8010007208DF8020016480B
:1020A00000788DF8030000BF06E01348401C015D76
:1020B00001A80155601CC4B2102CF6DB0F4801F0DA
:1020C0000BFC05460D49481914226946FEF775FABE
:1020D00009490978C81DC11700EB5171CC10641C67
:1020E000E81C204406490880002005B030BD0120CE
:1020F000FBE7000015020020461000209F1400207E
:102100009C0200201CB5002412480078F8B9102069
:102110008DF8000083208DF8010002208DF8020068
:1021200007F072FACDF803000B4801F0D5FB044626
:102130000948204400990160BDF8041081809DF891
:1021400006108171E01D0549088000201CBD01209A
:10215000FCE70000150200209F1400209C020020D4
:102160002DE9F84304460E464FF0000800270025ED
:10217000DFF88C902348007800B901E0DFF8889000
:1021800022480078002838D1042E34D12078054325
:10219000607845EA0025A07845EA0045E07845EA00
:1021A00000651B484560416800230822484601F04D
:1021B000E7FC8046B8F1010F03D001208DF8030041
:1021C00002E000208DF8030010208DF8000084202C
:1021D0008DF8010003208DF802000E4801F07CFB11
:1021E00007460C48384400990160381D0A490880A8
:1021F0000020BDE8F8830120FBE70120F9E700009B
:102200000038014002010020004400401502002077
:10221000571000209F1400209C0200207FB5044628
:102220000D46002600200090019002904248007860
:1022300000287FD1092D7BD1BDF80000217808430B
:10224000ADF80000BDF80000617840EA0120ADF86B
:1022500000009DF80200A17808438DF802009DF867
:102260000300E17808438DF803009DF8040021790C
:1022700008438DF80400DDF8050061790843CDF8C6
:102280000500DDF80500A1790843CDF80500DDF86B
:102290000500E1790843CDF80500DDF80500217A55
:1022A0000843CDF80500BDF80000B0F57A7F0BDCDF
:1022B0009DF80200FF2807DC9DF80300962803DC48
:1022C0009DF80400322802DD022004B070BDBDF884
:1022D00000001A49A1F815009DF802101748C175B1
:1022E0009DF8031001769DF804104176DDF8051085
:1022F000C0F81A1001F078FB10208DF80C00842033
:102300008DF80D0004208DF80E000D4801F0E4FA60
:1023100006460B483044BDF80C1001809DF80E10A5
:102320008170F01C074908800020CEE702E0FFE73B
:102330000120CAE70120C8E715020020281000206C
:102340009F1400209C02002038B5002410208DF836
:10235000000084208DF8010001208DF8020009485A
:1023600001F0BAFA044607482044BDF80010018085
:102370009DF802108170E01C034908800020034989
:10238000087038BD9F1400209C0200201502002018
:102390002DE9F04186B005460E460027B8460024D8
:1023A000022E03DA022006B0BDE8F081142168464F
:1023B000FEF79CF9701E1FFA80F823480078002869
:1023C00040D19DF80000297808438DF800000024D2
:1023D0000AE00DF10100005D611C695C08430DF12C
:1023E00001010855601C84B24445F2DB9DF80000F1
:1023F00016490870002407E00DF10100015D134843
:10240000401C0155601C84B2102CF5DB01F0ECFA85
:1024100010208DF8140084208DF8150007208DF809
:1024200016000B4801F058FA074609483844BDF831
:10243000141001809DF816108170F81C0549088061
:102440000020B0E70120AEE7150200204610002072
:102450009F1400209C020020F8B504460E46002779
:1024600000251E480078002836D1042E32D120786D
:102470000543607845EA0025A07845EA0045E07804
:1024800045EA00650121080706F0BEFE012006F0BE
:102490002FFD07F04FFA284607F0A2F907F04AFA95
:1024A00010208DF8000084208DF8010002208DF8A6
:1024B00002000B4801F010FA074609483844BDF8FD
:1024C000001001809DF802108170F81C05490880F9
:1024D0000020F8BD0120FCE70120FAE715020020EA
:1024E0009F1400209C02002030B5EDB00024002590
:1024F0004FF4DA716846FEF7F9F87C480078002856
:102500007ED110208DF8000082208DF8010005207A
:102510008DF802004FF4D4717548FEF7E7F874485F
:1025200001F036FD012801D16DB030BD7048006862
:10253000CDF803006F48B0F81510ADF80710C17D55
:102540008DF80910017E8DF80A10417E8DF80B1070
:10255000D0F81A100391664801798DF81010002404
:10256000A3E004EB840000EBC4016148401D415C22
:1025700004EB840000EBC4020DF11100815404EB64
:10258000840000EBC4015A48401D0844417804EB24
:10259000840000EBC4020DF111001044417004EB03
:1025A000840000EBC4015248401D0844817804EBCC
:1025B000840000EBC4020DF111001044817004EBA3
:1025C000840000EBC4014A48401D0844C17804EB74
:1025D000840000EBC4020DF111001044C17004EB43
:1025E000840000EBC4014248401D0844017904EB1B
:1025F000840000EBC4020DF111001044017100E0F1
:1026000072E004EB840000EBC4013948401D08442B
:10261000417904EB840000EBC4020DF11100104479
:10262000417104EB840000EBC4013148401D0844B3
:10263000817904EB840000EBC4020DF11100104419
:10264000817104EB840000EBC4012948401D08445B
:10265000C17904EB840000EBC4020DF111001044B9
:10266000C17104EB840000EBC4012148401D084403
:10267000017A04EB840000EBC4020DF11100104458
:10268000017204EB840000EBC4011948401D0844AA
:10269000D0F8091004EB840000EBC4020DF1110026
:1026A0001044C0F80910601CC4B211480079A0425F
:1026B0003FF757AF104801F00FF905460E4948198A
:1026C00040F2B1126946FDF778FF9DF81000C0F1A5
:1026D000200000EB800101EBC00105F2B110401AAF
:1026E0000649088000201FE701201DE71502002091
:1026F000903A0020281000209F1400209C02002007
:102700007FB50020039002900024002500900190E6
:102710001F480078002838D110208DF80000822052
:102720008DF8010008208DF8020002A903A801F02D
:10273000CBFF012801D104B070BD00240AE0154888
:1027400000EB44000088BDF80C10884200D103E083
:10275000601CC4B2202CF2DB00BF601CC4B28DF838
:1027600003409DF808108DF804100B4801F0B4F8F0
:10277000054609482844009901609DF8041001713C
:10278000681D064908800020D5E70120D3E7000036
:10279000150200205F1000209F1400209C020020E2
:1027A00070B50446002500261048007801281CD189
:1027B0000F480078C8B92046E11704EB5171C1F306
:1027C000C705E11704EB5171C910A4EBC101CEB2EA
:1027D0000848405D0121B140084030B1064931F858
:1027E00014000649CA6E0121904770BD0001002007
:1027F00015020020471000204C0800201C02002079
:1028000070B50446002500261048007801281CD128
:102810000F480078C8B92046E11704EB5171C1F3A5
:10282000C705E11704EB5171C910A4EBC101CEB289
:102830000848405D0121B140084030B1064931F8F7
:1028400014000649CA6E0021904770BD00010020A7
:1028500015020020471000204C0800201C02002018
:102860002DE9F043ADF5806D02460027BC460026F9
:102870000C460025881E105C5E2803D0881E105C64
:102880005D2815D1C81E105C7D280DD1881E105CF6
:102890005E2802D14FF07E0C0DE0881E105C5D2892
:1028A00009D14FF07D0C06E0881E12F800C002E04E
:1028B000881E12F800C010787E2803D1481E105CD4
:1028C0007E2804D001200DF5806DBDE8F083A01EA8
:1028D00084B2881E105C5E2803D0881E105C5D28C0
:1028E00009D1C81E105C7D2802D1A01E84B204E06C
:1028F000601E84B201E0601E84B2002336E0581CE2
:10290000105C7D2828D1981C105C5E280BD14FF0FC
:102910007E09284605F101081FFA88F50DF8009098
:10292000581C83B220E0981C105C5D2809D14FF040
:102930007D09A846681C85B20DF80890581C83B222
:1029400012E0581C12F80090284605F101081FFA01
:1029500088F50DF8009007E0581C12F80090A84682
:10296000681C85B20DF80890581C83B2A342C6DBE0
:102970009DF80060012304E01DF803004640581C48
:1029800083B2AB42F8DBB44501D0012700E0002759
:10299000384698E770B504460B46002500262046C9
:1029A00000F088FF06469E4201D0012500E0002588
:1029B000284670BDF0B504460E46002200230025CF
:1029C0003146207800F0010020B1A278E378481E5B
:1029D00081B203E0E2782379881E81B2C81E81B2F9
:1029E000812A06D1012B04D109B10120F0BD0020BC
:1029F000FCE7802A06D1012B04D109B10120F5E7BB
:102A00000020F3E7812A07D1022B05D1042901D048
:102A10000120EBE70020E9E7802A06D1022B04D150
:102A200009B10120E2E70020E0E7812A07D1032B6A
:102A300005D1042901D00120D8E70020D6E7812A5A
:102A400007D1042B05D1092901D00120CEE70020B0
:102A5000CCE7802A06D1042B04D109B10120C5E7B7
:102A60000020C3E7852A06D1052B04D109B1012036
:102A7000BCE70020BAE7802A07D1062B05D1082938
:102A800001D00120B2E70020B0E7812A1FD1072B37
:102A90001DD1022901DA0120A8E7207800F0010009
:102AA00008B1257900E065790DB1802D01DD0120A7
:102AB0009CE7E81DC71700EB5777C7F3C705681CED
:102AC000C5B2A94201D0012090E700208EE7802AFC
:102AD00006D1072B04D109B1012087E7002085E743
:102AE000852A06D1082B04D109B101207EE70020F8
:102AF0007CE7852A06D1092B04D109B1012075E7AD
:102B0000002073E7012071E710B50346002400227E
:102B10000021187800F0010010B19A78D97801E00E
:102B2000DA781979802A0BD0812A09D0822A07D035
:102B3000832A05D0842A03D0852A01D0862A01D190
:102B4000002401E0012010BD01290FD002290DD081
:102B500003290BD0042909D0052907D0062905D05F
:102B6000072903D0082901D0092901D1002401E057
:102B70000120E8E72046E6E70146002000220B7826
:102B800003F001030BB14A7800E08A78102A01D0E3
:102B9000012000E000207047F0B5ADF5806D0246E1
:102BA0000C462546002310787E2803D1601E105C59
:102BB0007E2803D000200DF5806DF0BDA81E85B2E3
:102BC000A01E105C5E2803D0A01E105C5D2809D1F9
:102BD000E01E105C7D2802D1A81E85B204E0681EAC
:102BE00085B201E0681E85B200212EE0481C105C11
:102BF0007D2821D1881C105C5E2808D17E271846CC
:102C00005E1CB3B20DF80070481C81B21BE0881C3A
:102C1000105C5D2808D17D2718465E1CB3B20DF804
:102C20000070481C81B20EE0481C175C1E46581C00
:102C300083B20DF8067006E0481C175C18465E1C4F
:102C4000B3B20DF80070481C81B2A942CEDB00215E
:102C500004E01DF801005054481C81B29942F8DB91
:102C60001D462846A7E7F0B5ADF5806D03460D4635
:102C70000020002200211C78012203E09E5C7440A9
:102C8000561CB2B2AA42F9DB00222BE09E5C7E2EDB
:102C90000ED14FF07D0C0E464F1CB9B20DF806C098
:102CA0004FF05E0C0E464F1CB9B20DF806C017E08F
:102CB0009E5C7D2E0DD1B4460E464F1CB9B20DF868
:102CC00006C04FF05D0C0E464F1CB9B20DF806C0A1
:102CD00006E013F802C00E464F1CB9B20DF806C04C
:102CE000561CB2B2AA42D1DB7E2C0ED14FF07D0C25
:102CF0000E464F1CB9B20DF806C04FF05E0C0E46E2
:102D00004F1CB9B20DF806C014E07D2C0DD1A446BD
:102D10000E464F1CB9B20DF806C04FF05D0C0E46C2
:102D20004F1CB9B20DF806C004E00E464F1CB9B2F4
:102D30000DF806407E261E70002204E01DF8027089
:102D4000561C9F55B2B28A42F8DB7E274E1C9F5517
:102D50008E1CB1B208460DF5806DF0BD70B5ADF5B5
:102D6000806D02460C460020002300212046157885
:102D700005F0010525B15D1CABB2451EA8B203E00C
:102D80009D1CABB2851EA8B2DD1CABB2C51EA8B29D
:102D9000002105E05D18555D0DF801504D1CA9B2EC
:102DA0008142F7DB002104E01DF8015055544D1C11
:102DB000A9B28142F8DB0DF5806D70BD72B6704727
:102DC00038B50446002510208DF8000086208DF8C7
:102DD000010009208DF802008DF80340054800F03D
:102DE0007BFD05460348284400990160281D0249DF
:102DF000088038BD9F1400209C02002010B50024DC
:102E00003548007801282DD1FFF76EFB044644B900
:102E10000220324908700020314908702E4908709C
:102E200010BD012400202C49087001F099F8A1027E
:102E30002C48FDF739FCA1022B48FDF735FC00209A
:102E40002A4908802A490880244908700120294914
:102E500008700020284908700021012000F020FEA1
:102E60000120DDE71C48007802282DD1FFF748FC3F
:102E7000044644B902201949087000201849087016
:102E800015490870CCE7012400201349087001F0AF
:102E900005FCA1021348FDF707FCA1021248FDF74B
:102EA00003FC002011490880114908800B49087073
:102EB00001201049087000200F49087000210120EE
:102EC00000F0EEFD0120ABE703480078032801D0B5
:102ED0000120A5E72046A3E71702002014020020E6
:102EE000160200209F1000209F1400209A0200204C
:102EF0009C020020180200201902002070B5002456
:102F000000256D4801886D48FFF7AAFC04463CB1D6
:102F10000120FFF755FF022069490870002070BDAD
:102F2000654801886548FFF737FE0546002D70D0DB
:102F3000614805806348017D6048FFF72BFD04462A
:102F4000DCB10124A1025D48FDF7AEFBA1025E48A1
:102F5000FDF7AAFB0020584908805C4908805849C1
:102F6000087001205A49087000205A490870002151
:102F7000012000F095FD0120D1E75048FFF7FCFD4E
:102F800004463CB10220FFF71BFF02204C490870A9
:102F90000020C4E74948FFF7B7FD04463CB10320D1
:102FA000FFF70EFF0220464908700020B7E74248AD
:102FB00001884248FFF7FEFC04463CB10420FFF7BD
:102FC000FFFE02203E4908700020A8E73A48018829
:102FD0003A4800F00FFF044624B90220384908702F
:102FE00000209CE7022C15D161023448FDF75CFB00
:102FF00061023548FDF758FB00202F49088033490E
:1030000008800420FFF7DCFE02202D490870002014
:1030100085E73AE0032C1CD14FF480612748FDF787
:1030200043FB4FF480612848FDF73EFB0020224916
:103030000880264908802249087001202449087028
:103040000020244908700021012000F029FD002003
:1030500065E70124A1021948FDF726FBA1021A48E1
:10306000FDF722FB00201449088018490880144904
:1030700008700120164908700020164908700021C8
:10308000012000F00DFD012049E70124A1020B48B9
:10309000FDF70AFB00200849088009490870012053
:1030A0000B49087000200B4908700021012000F036
:1030B000F7FC012033E700009A0200209F10002057
:1030C00014020020D00700209F1400209C02002042
:1030D000180200201902002070B5002600240025E7
:1030E0001E48008820F40044ACB94FF480611C48AD
:1030F000FDF7DAFA0020194908801A490870012002
:10310000194908700020194908700021012000F0B9
:10311000C7FC012070BD2146114800F021FE054684
:10312000ADB94FF480610E48FDF7BEFA00200B499F
:1031300008800C49087001200B49087000200B49D9
:1031400008700021012000F0ABFC0120E2E70348F9
:1031500005800320034908703046DBE79A0200200F
:103160009F100020140200201802002019020020E5
:1031700070B50024002538480078002838D1374839
:103180000088C8B1354801883548FFF76CFD054611
:10319000324805800120304908700220314908700A
:1031A00000203149087001203049087001210020B9
:1031B00000F076FC002070BD0124A1022C48FDF730
:1031C00073FAA1022648FDF76FFA0020294908800A
:1031D00022490880234908700120234908700020F3
:1031E000224908700021012000F05AFC0120E2E78A
:1031F0001A48008800F4004040B300201A490870C3
:103200001A4908700021084600F04AFC00201249C3
:1032100008704FF480611648FDF746FA4FF480615C
:103220000F48FDF741FA0020124908800B49088039
:103230000C49087001200C49087000200B490870E7
:103240000021012000F02CFC0020B4E702200549F9
:1032500008702046AFE70000980200209C02002082
:103260009F140020140200201802002019020020E0
:103270009F1000209A02002070B5002500242B4EDC
:103280002B48007800B900E02A4E2B4800F022F9C4
:10329000044600F063FB601C28B9284800F08CFA53
:1032A00000F0A2FB08E026480068A04204D02046B7
:1032B00000F082FA00F098FBFFF780FD002308225F
:1032C0004FF41651304600F05BFC05464FF4806128
:1032D0001C48FDF7E9F94FF480611B48FDF7E4F95C
:1032E00000201A4908801A49088000F0CFF8012D03
:1032F0000DD00020174908700120174908700020E0
:10330000164908700021012000F0CAFB0BE00420E0
:1033100010490870002010490870104908700021F9
:10332000084600F0BDFB284670BD00000038014093
:10333000020100200044004000E8030878563412DF
:10334000571000209F1000209F1400209A02002098
:103350009C02002014020020180200201902002004
:1033600010B500243E48007801280DD03D48007873
:10337000012809D001203A49087000203949087015
:103380000021012000F08CFB3748008800F4004049
:1033900060B10020324908703249087000210846A7
:1033A00000F07EFB01203149087057E0304800787A
:1033B00001284FD001F01EFA20BB2E48007808B338
:1033C0002D480088012805D001202B4908800020C5
:1033D0002A4908602948006864283ED3002026490D
:1033E0000880264908601E4908701E49087000219F
:1033F000084600F055FB02202149087005201B49B2
:1034000008702AE001F0D4F818BB1A48007800B31D
:103410001C480088012805D001201A490880002096
:103420001949086018480068642816D30020154917
:103430000880154908600A4908700A490870002187
:10344000084600F02DFB01200D49087005200749B2
:10345000087002E000200549087000BF204610BD3A
:1034600018020020190200209A02002014020020F5
:103470001502002016020020DC000020D8000020E9
:1034800017020020E4000020E000002062B6704730
:103490007CB50446002000900025042001900C48D3
:1034A000001BC00A00903520FEF7E4FB00BF07E0D8
:1034B0004FF4006101FB0540FEF7E2FB01906D1C3B
:1034C0000098854203D29DF804000428F0D07CBD0A
:1034D0000000040810B504463520FEF7CBFB206839
:1034E00010BDF8B505460E461746002408E056F80C
:1034F000241005EB8400FEF71FFC0090601C84B2D2
:103500009DF80000042801D1BC42F0DB9DF80000CA
:10351000F8BD000008B5684600F01EFB12480088A0
:1035200000F40040F8B910480088B0F5806F14DA54
:1035300000210E480CF0E8F80B48008818B901216A
:103540000A480CF03DF89DF8002007490888411C06
:10355000054B198006490A5405E00348008840F4E9
:1035600000400149088008BD9A020020002C01405B
:103570009F10002070B5154D1548007800B900E087
:10358000144D15490C88611C134A11801349085DBC
:1035900000F0CAFB1048008811490988884204D00D
:1035A0000D480088B0F5806F0EDB002240F22771D5
:1035B00028460CF0B6FA0020074908800848008821
:1035C00040F400400649088070BD0000003801400A
:1035D00002010020004400409E0200209F140020B1
:1035E0009C020020014600200A7802F001020AB184
:1035F000C87800E008797047014600200A7802F098
:1036000001020AB1887800E0C878704770B50546B5
:10361000002400BF07E035F81410054800EB440013
:103620000180601CC4B2202CF5DB00F0DDF970BD18
:103630005F1000202DE9F04705460027B846B9463F
:1036400000260024002D7DD057480088401C564994
:10365000088008460088A84274DB002008804FF4E8
:10366000D4715248FDF742F805F0CEFF4F4908608B
:1036700000BF08E04E4800EB4400008808B1781C09
:10368000C7B2601CC4B2202CF4DB48480771002488
:1036900082E0474800EB4400008800287AD0444A82
:1036A00002EB44021088434A916888478046B8F18B
:1036B000FF0F01DD4FF0FF083D4A02EB4402108886
:1036C0003C4A91698847814699FBF5F04FF4FA71BD
:1036D00090FBF1F01FFA80F9354A02EB44021088A2
:1036E000344A516A884706464FF47A7096FBF0F0E8
:1036F00086B2FF2E00DDFF26601CC1B204EB840001
:1037000000EBC4022948401D8154002104EB8400D1
:1037100000EBC4022548401D1044417004EB8400B6
:1037200000EBC4022148401D1044817004EB84006A
:1037300000EBC4021D48401D104480F8038004EBD8
:10374000840000E02EE000EBC4021848401D104445
:1037500080F8049004EB840000EBC4021348401D81
:103760001044417104EB840000EBC4020F48401D7B
:103770001044817104EB840000EBC4020B48401D2F
:103780001044C67104EB840000EBC4020748401DDE
:1037900010440172601CC4B2202CFFF67AAF0348BB
:1037A00000F0E0FCBDE8F087A2020020903A002083
:1037B0005F100020C406002010B504460A202F49DF
:1037C00008702FA12D48401CFCF7B4FE04202B49A3
:1037D000C8722EA129480C30FCF7ACFE20202749E6
:1037E00008740846407C20F0030048740846407C7A
:1037F00020F0040048740846407C20F0080008309F
:1038000048740846407C20F0100010304874084688
:10381000407C20F0200048740846407C20F04000A6
:103820004030487400211548B0F8110061F3CF1002
:103830001249A1F811000420C874002008753C202A
:10384000A1F81500C8210D48C17564210176322107
:10385000417601200E49087010210D48401CFCF7EC
:1038600023FF0C4804604FF416500A494860402179
:1038700008480830FCF718FF10BD00002810002091
:103880004D6F766542726F61640000007776640068
:10389000461000205710002010B50020044981F880
:1038A000C80081F8C900C8210148FCF7FDFE10BD21
:1038B000A0180020014600200A7802F001021AB187
:1038C0000A7840EA920006E00A7840EA92004A78D4
:1038D000520840EA8210704738B5034600240020A1
:1038E00000901D48027DB2F5005F01DB002038BD6D
:1038F0003F2A0FDC9DF8000040F001008DF8000029
:103900009DF80000FC2505EA820528438DF800009B
:10391000012416E09DF80000FC2505EA82052843F5
:103920008DF800009DF8010040F001008DF80100C5
:103930009DF80100FE2505EA621528438DF8010077
:103940000224002104E01DF801005854481CC1B2B3
:10395000A142F8DB2046CAE7D007002070B500245A
:10396000002608261A4D00BF0BE0F0200DF06CFD7C
:10397000184901EB8400FFF7ADFD45F82400601CF9
:1039800084B2B442F1DB0526134D00240BE0F02095
:103990000DF05AFD114901EB8400FFF79BFD45F83E
:1039A0002400601C84B2B442F1DB12260C4D0024CA
:1039B0000BE0F0200DF048FD0A4901EB8400FFF711
:1039C00089FD45F82400601C84B2B442F1DB70BD6F
:1039D0002810002000F803084610002000F9030812
:1039E0005710002000FA030810B5FEF7E7F90A485F
:1039F000FFF74EFD082209490748FFF772FD05222F
:103A000007490848FFF76DFD122207490748FFF7ED
:103A100068FDFEF779F910BD00F8030828100020B2
:103A20004610002000F903085710002000FA030890
:103A300010B51A48007806282ED2DFE800F0030AF5
:103A400011181F26FFF78CFC10B1002013490870D5
:103A500022E0FFF741FB10B10020104908701BE085
:103A6000FFF786FB10B100200C49087014E0FFF747
:103A700045FA10B10020094908700DE0FFF7FCFB82
:103A800010B104200549087006E0FFF7B7F910B13E
:103A900000200249087000BF00BF10BD14020020C2
:103AA00070B504460D46284E2848007800B900E05D
:103AB000274EFFF783F9F4B100BF402130460CF0E8
:103AC00001F80028F9D02148007848B9022121489E
:103AD00000F0FDFF012240F225511B480CF021F8B7
:103AE0001A48007801280CD1012240F225511848CB
:103AF0000CF017F805E0002240F2255130460CF09A
:103B000010F8BDB11148007848B9012240F2277180
:103B10000D480CF006F802210E4800F0DAFF0B48C1
:103B2000007801280CD1012240F2277108480BF0DF
:103B3000F8FF05E0002240F2277130460BF0F1FF5C
:103B4000FFF7A4FC70BD0000003801400201002016
:103B5000004400400008014070B50446054D064889
:103B6000007800B900E0054D28460CF049F82070B7
:103B7000002070BD003801400201002000440040D8
:103B80002DE9F04385B004460E4617461D464FF01A
:103B90000008DFF87C915F48007800B901E0DFF8A9
:103BA00078915B48844226D1012144F2040005F05B
:103BB0004BFB6015ADF8100018208DF813000320A2
:103BC0008DF8120004A9554800F0B6FE2015ADF896
:103BD000100004208DF8130004A9504800F0ACFE3A
:103BE0000220ADF8100010208DF8130004A94B48F6
:103BF00000F0A2FE47E0484884421FD1012148045A
:103C000005F002FB0121042005F01EFB0420ADF8A5
:103C1000100018208DF8130003208DF8120004A95D
:103C20003E4800F089FE0820ADF8100048208DF8CD
:103C3000130004A9394800F07FFE24E0384884428C
:103C40001FD10121880405F0DFFA0121082005F0C9
:103C5000FBFA2015ADF8100018208DF81300032092
:103C60008DF8120004A92F4800F066FEE014ADF8AC
:103C7000100048208DF8130004A92A4800F05CFECB
:103C800001E04FF001080096072F0BD0082F0AD152
:103C90001DB90020ADF8040003E04FF48050ADF8EA
:103CA000040003E002E04FF0010800BF00BF25B1AF
:103CB000012D06D0022D0ED108E00020ADF808003D
:103CC00009E04FF4C060ADF8080004E04FF48060F4
:103CD000ADF8080000BF00BFB8F1000F13D1FFF727
:103CE0006DF80020ADF80600ADF80C000C20ADF822
:103CF0000A00694648460BF035FF012148460BF0A3
:103D0000E7FDFFF7C3FB404605B0BDE8F0830000C8
:103D1000003801400201002000440040000801403A
:103D200000480040000C014070B50446094D0A48A7
:103D3000007800B900E0094D214628460BF0ABFFA2
:103D400000BF802128460BF0BDFE0028F9D00020DE
:103D500070BD000000380140020100200044004016
:103D60002DE9F043ADF2044D054688460027B946DB
:103D70000024002600BF25E0285D7E2808D13FB939
:103D80002A5D3046711C8EB201A90A54012717E042
:103D9000285D7E2809D1012F07D12A5D3046711C8C
:103DA0008EB201A90A5400270EE0285D7E2807D0B4
:103DB000012F05D12A5D3046711C8EB201A90A542B
:103DC000601C84B24445D7DB00BF41462846FCF75F
:103DD0006BFC56B14FB9002404E001A8005D2855E2
:103DE000601C84B2B442F8DBB14648460DF2044D83
:103DF000BDE8F0832DE9F0470746894600240025F9
:103E00000026A246387800F0010010B1BD78FE7897
:103E100001E0FD783E79B84649464046FEF79EFFF0
:103E20008246812D0BD1012E09D1FEF78DFA044671
:103E3000012C02D00020BDE8F0870120FBE7802D97
:103E40000AD1012E08D1FEF7EDF80446012C01D06D
:103E50000020F0E70120EEE7812D0CD1022E0AD1DF
:103E600051464046FEF7F8FA0446012C01D00020E6
:103E7000E1E70120DFE7802D0AD1022E08D1FEF70D
:103E800041F90446012C01D00020D4E70120D2E7FB
:103E9000812D0CD1032E0AD151464046FEF760F920
:103EA0000446012C01D00020C5E70120C3E7812D85
:103EB0000FD1042E0DD151464046FEF7AFF904460E
:103EC0000CB90020B7E7022C01D10220B3E7012092
:103ED000B1E7802D0AD1042E08D1FEF705F804467B
:103EE000012C01D00020A6E70120A4E7852D09D1EF
:103EF000052E07D1FDF7B0FF0446032C00D19AE749
:103F0000012098E7812D0FD1072E0DD15146404653
:103F1000FEF73EFA04460CB900208CE7022C01D1D2
:103F2000022088E7012086E7802D0AD1072E08D1DC
:103F3000FEF7A0F80446012C01D000207BE7012009
:103F400079E7852D09D1082E07D1FDF7A9FF044691
:103F5000032C00D16FE701206DE720466BE70000DE
:103F600000B500F025FB08B1012000BD074890F81E
:103F70002001401C142190FBF1F201FB1200C1B2A0
:103F8000024880F820110020EFE700006C39002083
:103F900030B503460022002400F00AFB08B10120DE
:103FA00030BD6E4890F82001401C142190FBF1F5C3
:103FB00001FB1500C4B235206043694951F8300057
:103FC00018603520604301EBC000007918710022B1
:103FD000BFE035206043624901EBC000401D02EBA9
:103FE000820101EBC201415C02EB820000EBC205E1
:103FF000581D415535206043594901EBC000401D13
:1040000002EB820101EBC2010844417802EB82001D
:1040100000EBC205581D28444170352060435049CB
:1040200001EBC000401D02EB820101EBC20108441C
:10403000817802EB820000EBC205581D2844817094
:1040400035206043464901EBC000401D02EB820170
:1040500001EBC2010844C17802EB820000EBC2050B
:10406000581D2844C170352060433D4901EBC00014
:10407000401D02EB820101EBC2010844017902EB11
:10408000820000EBC205581D2844017135206043B1
:10409000334901EBC000401D02EB820101EBC2017C
:1040A0000844417902EB820000EBC205581D284408
:1040B0004171352060432A4901EBC000401D02EBED
:1040C000820101EBC2010844817902EB820000EB1E
:1040D000C205581D2844817135206043204901EBF9
:1040E000C000401D02EB820101EBC2010844C1790E
:1040F00002EB820000EBC205581D2844C171352037
:104100006043174901EBC000401D02EB820101EB47
:10411000C2010844017A02EB820000EBC205581D7F
:1041200028440172352060430D4901EBC000401D59
:1041300002EB820101EBC2010844D0F8091002EB46
:10414000820000EBC205581D2844C0F80910501C1D
:10415000C2B2202AFFF63DAF002021E76C390020D3
:104160006C19002010B5044600BF00F02FFA00289B
:104170007ED0FE4890F82101401C142190FBF1F202
:1041800001FB1200C1B2F94880F8211190F8210119
:1041900035225043F64A216842F830102179F3481D
:1041A00090F8210135225043F14A02EBC000017121
:1041B0000023DFE003EB830000EBC301601D415CE3
:1041C000EA4890F8210135225043E94A02EBC00049
:1041D000401D03EB830202EBC302815403EB830017
:1041E00000EBC301601D08444178E04890F82101CC
:1041F00035225043DE4A02EBC000401D03EB830230
:1042000002EBC3021044417003EB830000EBC301D7
:10421000601D08448178D54890F82101352250432B
:10422000D34A02EBC000401D03EB830202EBC30242
:104230001044817003EB830000EBC301601D084450
:10424000C178CA4890F8210135225043C84A02EB90
:10425000C000401D03EB830202EBC3021044C17097
:1042600003EB830000EBC301601D0844017900E00B
:1042700091E0BE4890F8210135225043BC4A02EB40
:10428000C000401D03EB830202EBC3021044017126
:1042900003EB830000EBC301601D08444179B34880
:1042A00090F8210135225043B14A02EBC000401D75
:1042B00003EB830202EBC3021044417103EB830062
:1042C00000EBC301601D08448179A84890F82101E2
:1042D00035225043A64A02EBC000401D03EB830287
:1042E00002EBC3021044817103EB830000EBC301B6
:1042F000601D0844C1799D4890F821013522504342
:104300009B4A02EBC000401D03EB830202EBC30299
:104310001044C17103EB830000EBC301601D08442E
:10432000017A924890F8210135225043904A02EBDD
:10433000C000401D03EB830202EBC3021044017274
:1043400003EB830000EBC301601D0844D0F80910A3
:10435000864890F8210135225043854A02EBC0007F
:10436000401D03EB830202EBC3021044C0F80910A6
:10437000581CC3B2202BFFF61DAF7C4890F82001DB
:10438000401C142190FBF1F201FB1200C1B27748EE
:1043900080F8201106E1754890F82101401C142195
:1043A00090FBF1F201FB1200C1B2704880F82111BC
:1043B00090F82101352250436D4A216842F83010AF
:1043C00021796A4890F8210135225043684A02EB6E
:1043D000C00001710023E2E003EB830000EBC301A6
:1043E000601D415C614890F8210135225043604ACC
:1043F00002EBC000401D03EB830202EBC3028154B9
:1044000003EB830000EBC301601D0844417857486B
:1044100090F8210135225043554A02EBC000401D5F
:1044200003EB830202EBC3021044417003EB8300F1
:1044300000EBC301601D084481784C4890F82101CD
:10444000352250434A4A02EBC000401D03EB830271
:1044500002EBC3021044817003EB830000EBC30145
:10446000601D0844C178414890F82101352250432D
:104470003F4A02EBC000401D03EB830202EBC30284
:104480001044C17003EB830000EBC301601D0844BE
:104490000179364890F8210135225043344A02EB25
:1044A000C000401D03EB830202EBC3021044017104
:1044B00003EB830000EBC301601D084441792B48E6
:1044C00090F8210135225043294A02EBC000401DDB
:1044D00003EB830202EBC3021044417103EB830040
:1044E00000EBC301601D08448179204890F8210148
:1044F000352250431E4A02EBC000401D03EB8302ED
:1045000002EBC3021044817103EB830000EBC30193
:10451000601D0844C179154890F8210135225043A7
:10452000134A02EBC000401D03EB830202EBC302FF
:104530001044C17103EB830000EBC301601D08440C
:10454000017A0A4890F8210135225043084A02EBCB
:10455000C000401D03EB830202EBC3021044017252
:1045600003EB830000EBC301601D03E06C39002006
:104570006C1900200844D0F809100B4890F821016C
:1045800035225043094A02EBC000401D03EB830271
:1045900002EBC3021044C0F80910581CC3B2202B10
:1045A000FFF61AAF10BD00006C3900206C19002016
:1045B000054890F8201190F82101814201D1012095
:1045C00070470020FCE700006C390020084890F894
:1045D0002101401C142190FBF1F201FB120104485F
:1045E00090F82001814201D1012070470020FCE7B2
:1045F0006C39002070B50446124D1348007800B99C
:1046000000E0124D40F2277120460BF064FA48B1E9
:10461000AC4201D1FEF7AEFF40F2277120460BF00D
:104620004DF90EE040F2255120460BF054FA40B10E
:10463000AC4201D1FEF76EFF40F2255120460BF04F
:104640003DF970BD003801400201002000440040E7
:1046500010B502460B4600F0CDF808B1012010BDA0
:104660000D4890F8C800401C322190FBF1F401FB8A
:104670001400094981F8C800084690F8C80031F8CC
:1046800020001080084690F8C80001EB8000807878
:1046900018700020E3E70000A018002000B500F02B
:1046A000A9F808B1012000BD064890F8C800401CD8
:1046B000322190FBF1F201FB1200024981F8C8009F
:1046C0000020F0E7A018002030B502460B46002479
:1046D00000F090F808B1012030BD0A4890F8C800F9
:1046E000401C322190FBF1F501FB1500C4B20548D6
:1046F00030F824001080034800EB840080781870A4
:104700000020E9E7A018002010B503460C4600F091
:104710007FF818B31D4890F8C900401C322190FB67
:10472000F1F201FB1200194981F8C900084690F81E
:10473000C90021F82030084690F8C90001EB80003C
:104740008470084690F8C800401C322190FBF1F2BA
:1047500001FB12000D4981F8C80016E00B4890F8E3
:10476000C900401C322190FBF1F201FB1200074905
:1047700081F8C900084690F8C90021F820300846A1
:1047800090F8C90001EB8000847010BDA0180020D3
:1047900014480078F8B91448007808BB134800782A
:1047A000401C1249087008460078022818DB0020D7
:1047B000087001200C4908700D480078401C0C4915
:1047C00008700846007803280ADB002008700120E2
:1047D0000449087004E00020044908700449087086
:1047E000704700001502002016020020A0020020E1
:1047F000A1020020054890F8C800044991F8C910AA
:10480000884201D1012070470020FCE7A018002059
:10481000084890F8C900401C322190FBF1F201FBDE
:104820001200044991F8C810884201D10120704754
:104830000020FCE7A018002008B549F6F010ADF8FC
:10484000000010208DF8030003208DF80200694657
:10485000264800F071F840F2FD30ADF8000010205D
:104860008DF8030003208DF802006946204800F00F
:1048700063F81220ADF8000048208DF80300694667
:104880001C4800F059F84FF40050ADF8000010201B
:104890008DF8030003208DF802006946154800F0EA
:1048A0004BF80120ADF8000004208DF803006946A4
:1048B0000E4800F041F84FF48040ADF800000420AD
:1048C0008DF8030069460A4800F036F84BF2020002
:1048D000ADF8000003208DF8020010208DF80300D1
:1048E0006946034800F028F808BD000000080140B0
:1048F000000C01400010014030B500228B071C0F56
:104900000F2303FA04F20B4B8C1053F8243093431B
:10491000084C8D1044F8253023468C1053F8243071
:104920008C07240F00FA04F42343024C8D1044F842
:10493000253030BD080001402DE9F0410246002538
:104940000026002000230024002791F803C00CF06B
:104950000F0591F803C00CF0100CBCF1000F03D050
:1049600091F802C04CEA050591F800C0BCF1000FB7
:1049700030D0146800202AE04FF0010C0CFA00F34C
:10498000B1F800C00CEA03069E421FD183004FF02D
:104990000F0C0CFA03F7BC4305FA03FC4CEA0404C1
:1049A00091F803C0BCF1280F05D14FF0010C0CFAAF
:1049B00000FCC2F814C091F803C0BCF1480F05D147
:1049C0004FF0010C0CFA00FCC2F810C0401C082883
:1049D000D2D31460B1F800C0BCF1FF0F34DD5468CD
:1049E00000202EE000F1080C4FF0010808FA0CF34B
:1049F000B1F800C00CEA03069E4221D183004FF0BB
:104A00000F0C0CFA03F7BC4305FA03FC4CEA040450
:104A100091F803C0BCF1280F05D100F1080C08FA89
:104A20000CF8C2F8148091F803C0BCF1480F07D10C
:104A300000F1080C4FF0010808FA0CF8C2F81080D9
:104A4000401C0828CED35460BDE8F081F0B50A467A
:104A50000023002400210025174E7168C0F3034590
:104A600083B200F44016B6F5401F08D121F0706102
:104A7000114E766826F070660F4F7E6012E000F4EB
:104A80008016B6F5801F06D1032606FA05F4A14369
:104A900041F0706106E0460D360103FA06F6B143B7
:104AA00041F0706122B1460D360103FA06F631433A
:104AB000014E7160F0BD0000000001400246002080
:104AC00093680B400BB1012000E00020704741616A
:104AD0007047016170470000004870471C0A0020C1
:104AE000F0B58DB004463022224901A8FBF7AAFD9B
:104AF0006069451E642195FBF1F12846EA1705EB34
:104B00009272C1EBA2014FF4C87295FBF2F28F18BA
:104B10006069C11700EB91718910A0EB810191B917
:104B20006422616991FBF2F302FB131131B9920027
:104B3000616991FBF2F302FB131121B9216902298A
:104B400001DD012600E0002640F26D1005FB00713A
:104B50002069401E01AA52F820000844E168084478
:104B60000644072096FBF0F100FB1160A0610DB038
:104B7000F0BD00003C4D010870477047704770471A
:104B8000704700000246002109E0084830F8110093
:104B9000904202D1481C80B27047481C81B2202943
:104BA000F3DB01D11046F7E71046F5E74C0800208B
:104BB00010B51B48007E072826D2DFE800F0040D60
:104BC0001115191D2100164890F82200012802D164
:104BD00014498868804720E01249086980471CE032
:104BE00010498869804718E00E49086A804714E038
:104BF0000C49886A804710E00A49086B80470CE03E
:104C00000849886B804708E0054890F82200012891
:104C100002D104498868804700BF00BF10BD000072
:104C2000D0070020D001002010B50146002000BFB1
:104C30000EE031F81020C0EBC003074C24F823200D
:104C40000022C0EBC00304EB83035A80421CD0B2A5
:104C50002028EEDB10BD0000A80C00202DE9F0415B
:104C600004460D4616460027C4EBC400904901EBEC
:104C700080004088002851D1C4EBC40001EB8000C3
:104C80004580012E25D18B480078844207DA8A4A74
:104C900032F81410894A52F82400FFF71AFFC4EBC7
:104CA000C400834901EB8000007A012810D0E1B2F2
:104CB000834803F0C1FF0120C4EBC4017C4A02EB2E
:104CC000810108720020C4EBC40102EB810148603D
:104CD000ECE078480078844207DA774A32F814101A
:104CE000764A52F82400FFF7F2FEC4EBC400704984
:104CF00001EB8000007A0028EAD0E1B2704803F0AE
:104D0000B6FF0020C4EBC401694A02EB81010872BE
:104D1000C4EBC40102EB81014860C7E0C4EBC400EE
:104D2000634901EB80004088A8420FDAC4EBC4005D
:104D300001EB80004088281A642825DAC4EBC400FF
:104D400001EB80004088281A87B21DE0C4EBC40044
:104D5000574901EB80004088A84215DDC4EBC40030
:104D600001EB800040884FF6FF71081A2844642840
:104D70000ADAC4EBC4004E4901EB800040884FF6CC
:104D8000FF71081A284487B2C4EBC400484901EBFC
:104D900080004580C4EBC40001EB80004673C4EB87
:104DA000C40001EB8000007B00285BD1002F4BD1B9
:104DB000012E25D13F480078844207DA3E4A32F876
:104DC00014103E4A52F82400FFF783FEC4EBC400DF
:104DD000374901EB8000007A012867D0E1B23848FA
:104DE00003F02AFF0120C4EBC401314A02EB810128
:104DF00008720020C4EBC40102EB8101486055E059
:104E00002C480078844207DA2B4A32F814102B4AD7
:104E100052F82400FFF75BFEC4EBC400244901EB09
:104E20008000007AF0B3E1B2254803F020FF0020B3
:104E3000C4EBC4011E4A02EB81010872C4EBC40139
:104E400002EB8101486031E0C4EBC400184901EB7A
:104E5000800007610120C4EBC401154A02EB810107
:104E6000087323E0C4EBC400114901EB80004069E2
:104E70003844C4EBC4010E4A02EB81014861C4EB23
:104E8000C400114601EB80004069642805D364200A
:104E9000C4EBC40102EB810148610120C4EBC401F1
:104EA000034A00E002E002EB81010873BDE8F081F3
:104EB000A80C0020550000209C0000205C00002071
:104EC000A87A002010B5002400BF87E1C4EBC4001D
:104ED000C44931F8200000287DD0C4EBC40001EBA8
:104EE0008000007A012844D1C4EBC40001EB8000AB
:104EF0004068401CC4EBC401BA4A02EB810148601F
:104F0000C4EBC400114601EB80004168B648008C38
:104F100000EB4002C2EBC010B1EBC00F29D3B34885
:104F20000078844207DAB24A32F81410B14A52F8D3
:104F30002400FFF7CCFDC4EBC400AA4901EB8000BC
:104F4000007A78B12146AC4803F091FE0020C4EB12
:104F5000C401A44A02EB81010872C4EBC40102EB54
:104F6000810148600020C4EBC4019E4A02EB81012C
:104F70004873C4EBC4009B4901EB8000007B002810
:104F8000AAD0C4EBC40001EB8000806920BB974825
:104F90000078844207DA964A32F81410954A52F89B
:104FA0002400FFF794FDC4EBC4008E4901EB8000A0
:104FB000007AE8B32146904803F059FE0020C4EB84
:104FC000C401884A02EB81010872C4EBC40102EB00
:104FD0008101486034E0D0E0C4EBC400814901EBBA
:104FE000800080698049C98B01EB8101B0EB810FA2
:104FF00026D17E480078844207DA7D4A32F81410C0
:105000007C4A52F82400FFF764FDC4EBC4007549E4
:1050100001EB8000007A012812D02146764803F087
:105020000BFE0120C4EBC4016E4A02EB810100E0DB
:1050300006E008720020C4EBC40102EB8101486065
:10504000C4EBC400674901EB80008069401CC4EBDD
:10505000C401644A02EB810188616348C08B00EBA4
:10506000800080006049498B01EB810100EB8100E9
:10507000401CC4EBC40102EB8101896988427CD8E1
:105080000020C4EBC40102EB81018861C4EBC400C1
:10509000114601EB80000069401EC4EBC40102EB25
:1050A00081010861C4EBC400114601EB8000006976
:1050B00000287DD1C4EBC40001EB8000407B18BB0D
:1050C0004A480078844207DA494A32F81410494ABB
:1050D00052F82400FFF7FBFCC4EBC400414901EB8C
:1050E0008000007AA8B32146434803F0C0FD0020A9
:1050F000C4EBC4013B4A02EB81010872C4EBC4015A
:1051000002EB8101486024E038480078844207DAE5
:10511000374A32F81410374A52F82400FFF7D9FC06
:10512000C4EBC4002F4901EB8000007A012810D0A5
:105130002146314803F080FD0120C4EBC401294A17
:1051400002EB810108720020C4EBC40102EB810173
:1051500048600020C4EBC401224A02EB81010861CF
:10516000C4EBC40102EB81010873C4EBC400114617
:1051700001EB8000406900B100E02DE0C4EBC40009
:1051800001EB80000069C4EBC40102EB81014969B5
:105190000844C4EBC40102EB810108610020C4EBA8
:1051A000C40102EB810148610120C4EBC40100E0AD
:1051B00003E002EB810108730EE0C4EBC40009496F
:1051C00001EB80000069642806D96420C4EBC401A7
:1051D000044A02EB81010861601CC4B2202CFFF676
:1051E00075AE10BDA80C0020D0070020550000208F
:1051F0009C0000205C000020A87A00202DE9F041EE
:1052000004460D4617460026C4EBC400684901EB6E
:1052100080004088002851D1C4EBC40001EB80001D
:105220004580012F25D163480078844207DA624A1D
:1052300032F81410614A52F82400FFF74AFCC4EB1C
:10524000C4005B4901EB8000007A012810D0E1B274
:105250005B4803F0F1FC0120C4EBC401544A02EBAB
:10526000810108720020C4EBC40102EB8101486097
:105270009CE050480078844207DA4F4A32F8141014
:105280004E4A52F82400FFF722FCC4EBC400484900
:1052900001EB8000007A00280FD0E1B2484803F00B
:1052A000E6FC0020C4EBC401414A02EB8101087214
:1052B000C4EBC40102EB8101486077E0C4EBC40099
:1052C0003B4901EB80004088A8420FDAC4EBC400E0
:1052D00001EB80004088281A642825DAC4EBC4005A
:1052E00001EB80004088281A86B21DE0C4EBC400A0
:1052F0002F4901EB80004088A84215DDC4EBC400B3
:1053000001EB800040884FF6FF71081A284464289A
:105310000ADAC4EBC400264901EB800040884FF64E
:10532000FF71081A284486B2C4EBC400204901EB7F
:1053300080004580C4EBC40001EB8000007B98B97D
:10534000A6B3C4EBC40001EB800006610020C4EBEF
:10535000C401174A02EB810148730120C4EBC40168
:1053600002EB8101087321E0C4EBC400104901EB9A
:10537000800040693044C4EBC4010D4A02EB810156
:105380004861C4EBC400114601EB80004069642809
:1053900005D36420C4EBC40102EB81014861002005
:1053A000C4EBC401024A02EB81014873BDE8F081FD
:1053B000A80C0020550000209C0000205C0000206C
:1053C000A87A002010B5002400BF08E1C4EBC40097
:1053D000854931F8200000287ED0C4EBC40001EBE1
:1053E0008000007B0028F7D0C4EBC40001EB8000F4
:1053F000806928BB7D480078844207DA7C4A32F80D
:1054000014107C4A52F82400FFF763FBC4EBC4007D
:10541000754901EB8000007A012841D02146764889
:1054200003F00AFC0120C4EBC4016F4A02EB8101C6
:1054300008720020C4EBC40102EB810148602FE038
:10544000C4EBC400684901EB800080696B49498B5B
:1054500001EB8101B0EB810F22D1644800788442D6
:1054600007DA634A32F81410624A52F82400FFF750
:105470002EFBC4EBC4005C4901EB8000007A78B1DC
:1054800021465D4803F0F3FB0020C4EBC401564AFB
:1054900002EB81010872C4EBC40102EB8101486098
:1054A000C4EBC400504901EB80008069401CC4EB90
:1054B000C4014D4A02EB810188615048408B00EBEA
:1054C000800080004D49C98B01EB810100EB810018
:1054D000401CC4EBC40100E06FE002EB810189696C
:1054E00088427AD80020C4EBC40102EB81018861B4
:1054F000C4EBC400114601EB80000069401EC4EB00
:10550000C40102EB81010861C4EBC400114601EB48
:1055100080000069002851D1C4EBC40102EB810175
:105520000861C4EBC40102EB810108732F480078C5
:10553000844207DA2E4A32F814102E4A52F8240018
:10554000FFF7C5FAC4EBC400274901EB8000007ADD
:1055500078B12146284803F08AFB0020C4EBC4013F
:10556000214A02EB81010872C4EBC40102EB810104
:105570004860C4EBC4001C4901EB80004069E0B105
:10558000C4EBC40001EB80000069C4EBC401164AFF
:1055900002EB810149690844C4EBC40102EB8101BB
:1055A00008610020C4EBC40102EB810148610120C5
:1055B000C4EBC40102EB810108730EE0C4EBC4002C
:1055C000094901EB80000069642806D96420C4EB16
:1055D000C401054A02EB81010861601CC4B2202CA1
:1055E000FFF6F4AE10BD0000A80C0020550000200E
:1055F0009C0000205C000020A87A0020D00700203A
:105600002DE9F04104460D4617460026C4EBC400C0
:10561000684901EB80004088002851D1C4EBC400E8
:1056200001EB80004580012F25D16348007884423A
:1056300007DA624A32F81410614A52F82400FFF780
:1056400048FAC4EBC4005B4901EB8000007A0128F2
:1056500010D0E1B25B4803F0EFFA0120C4EBC401C3
:10566000544A02EB810108720020C4EBC40102EB32
:10567000810148609CE050480078844207DA4F4A34
:1056800032F814104E4A52F82400FFF720FAC4EB07
:10569000C400484901EB8000007A00280FD0E1B235
:1056A000484803F0E4FA0020C4EBC401414A02EB8D
:1056B00081010872C4EBC40102EB8101486077E00C
:1056C000C4EBC4003B4901EB80004088A8420FDADC
:1056D000C4EBC40001EB80004088281A642825DA56
:1056E000C4EBC40001EB80004088281A86B21DE09C
:1056F000C4EBC4002F4901EB80004088A84215DDAF
:10570000C4EBC40001EB800040884FF6FF71081A1B
:10571000284464280ADAC4EBC400264901EB80005F
:1057200040884FF6FF71081A284486B2C4EBC400C3
:10573000204901EB80004580C4EBC40001EB8000F0
:10574000007B98B9A6B3C4EBC40001EB80000661EE
:105750000020C4EBC401174A02EB81014873012009
:10576000C4EBC40102EB8101087321E0C4EBC40067
:10577000104901EB800040693044C4EBC4010D4A7C
:1057800002EB81014861C4EBC400114601EB8000CB
:105790004069642805D36420C4EBC40102EB810195
:1057A00048610020C4EBC401024A02EB8101487346
:1057B000BDE8F081A80C0020550000209C000020CE
:1057C0005C000020A87A002010B5002400BF08E18A
:1057D000C4EBC400854931F8200000287ED0C4EB1A
:1057E000C40001EB8000007B0028F7D0C4EBC400AC
:1057F00001EB8000806928BB7D480078844207DA8D
:105800007C4A32F814107C4A52F82400FFF761F900
:10581000C4EBC400754901EB8000007A012841D037
:105820002146764803F008FA0120C4EBC4016F4A10
:1058300002EB810108720020C4EBC40102EB81017C
:1058400048602FE0C4EBC400684901EB8000806928
:105850006B49898B01EB8101B0EB810F22D1644848
:105860000078844207DA634A32F81410624A52F828
:105870002400FFF72CF9C4EBC4005C4901EB800065
:10588000007A78B121465D4803F0F1F90020C4EBBD
:10589000C401564A02EB81010872C4EBC40102EB59
:1058A00081014860C4EBC400504901EB800080696D
:1058B000401CC4EBC4014D4A02EB81018861504891
:1058C000808B00EB800080004D49C98B01EB81018A
:1058D00000EB8100401CC4EBC40100E06FE002EB70
:1058E0008101896988427AD80020C4EBC40102EBA7
:1058F00081018861C4EBC400114601EB800000699E
:10590000401EC4EBC40102EB81010861C4EBC4007A
:10591000114601EB80000069002851D1C4EBC4019D
:1059200002EB81010861C4EBC40102EB8101087341
:105930002F480078844207DA2E4A32F814102E4A93
:1059400052F82400FFF7C3F8C4EBC400274901EB69
:105950008000007A78B12146284803F088F90020B9
:10596000C4EBC401214A02EB81010872C4EBC401FB
:1059700002EB81014860C4EBC4001C4901EB8000CC
:105980004069E0B1C4EBC40001EB80000069C4EBE6
:10599000C401164A02EB810149690844C4EBC40101
:1059A00002EB810108610020C4EBC40102EB81011C
:1059B00048610120C4EBC40102EB810108730EE0D1
:1059C000C4EBC400094901EB80000069642806D9D2
:1059D0006420C4EBC401054A02EB81010861601C2C
:1059E000C4B2202CFFF6F4AE10BD0000A80C0020BD
:1059F000550000209C0000205C000020A87A0020B8
:105A0000D00700202DE9F04104460E461746002538
:105A1000C4EBC400C14901EB80004088002851D18B
:105A2000C4EBC40001EB80004680012F25D1BC48A7
:105A30000078844207DABB4A32F81410BA4A52F8A6
:105A40002400FFF746F8C4EBC400B44901EB800022
:105A5000007A012810D0E1B2B44803F0EDF801203B
:105A6000C4EBC401AD4A02EB810108720020C4EB13
:105A7000C40102EB810148604DE1A94800788442ED
:105A800007DAA84A32F81410A74A52F82400FFF7A0
:105A90001EF8C4EBC400A14901EB8000007A002885
:105AA000EAD0E1B2A14803F0E2F80020C4EBC4015F
:105AB0009A4A02EB81010872C4EBC40102EB810136
:105AC000486028E1C4EBC400944901EB80004088A1
:105AD000B0420FDAC4EBC40001EB80004088301AFA
