:020000040800F2
:100000001071002081020008738C0008F949000873
:10001000718C0008050C0008311201080000000076
:100020000000000000000000000000008DEE00084D
:1000300007180008000000007D8D0008ADF00008E2
:10004000331201086D8D000851F10008C1940008B9
:10005000051D0008E992000821180008ED190008A4
:10006000691A00087B1A00088D1A0008F9170008A1
:10007000FB170008FD170008FF170008011800080B
:100080000318000805180008D10B0008E1FA000861
:10009000E3FA0008F5170008F7170008B91A000876
:1000A00053F1000869F1000865F1000855F10008F6
:1000B000A9F1000871F2000899F30008FD49000851
:1000C000FB490008014A0008FF49000889EE0008C2
:1000D0008BEE000805F6000841F6000881F60008DE
:1000E0007D190008F5930008DFFA000800F002F817
:1000F00000F064F80AA090E8000C82448344AAF15E
:100100000107DA4501D100F059F8AFF2090EBAE85B
:100110000F0013F0010F18BFFB1A43F0010318473B
:10012000904A0100B04A01000A444FF0000C10F858
:10013000013B13F0070408BF10F8014B1D1108BF65
:1001400010F8015B641E05D010F8016B641E01F805
:10015000016BF9D113F0080F1EBF10F8014BAD1C55
:100160000C1B09D16D1E58BF01F801CBFAD505E073
:1001700014F8016B01F8016B6D1EF9D59142D6D3CD
:10018000704700000023002400250026103A28BFF5
:1001900078C1FBD8520728BF30C148BF0B607047F9
:1001A000642900F0BF80732900F05383002070475A
:1001B0001FB500F0A4F91FBD10B510BD00F04DFB38
:1001C0001146FFF7F5FF12F017FF00F06BFB03B4C9
:1001D000FFF7F2FF03BC11F034F800000B49D1F82F
:1001E00000C04A685CF8043B1068184442F8040BED
:1001F0008C4528BFA1F1DC0C8A4228BFA1F1DC02AA
:10020000C1F800C04A6020F000407047A46A002096
:1002100030BF704720BF704740BF7047BFF36F8F3C
:100220007047BFF34F8F7047BFF35F8F704701DF99
:100230007047EFF31480704780F31488BFF36F8F1B
:100240007047EFF30980704780F309887047EFF338
:100250000880704780F30888704772B6704762B6AE
:10026000704771B6704761B6704780F31188704768
:10027000EFF31280704740BA704700BA7047000031
:100280000348004703480449044A054B70470000EF
:10029000ED000008106B002010710020106D002090
:1002A000106D0020704700000FB41CB5074B06AA64
:1002B0007B4469460090059800F0A1FA0020694649
:1002C00000F0B0FA1CBC5DF814FB000071050000E2
:1002D00070B50C460546012A05D02878800600D561
:1002E000EA69002302E0012305E05B1C934202D28D
:1002F000E05C0028F9D1A869E618C01AA861286A4C
:10030000184428622846AFF3008004E0D5E90121B3
:1003100014F8010B9047B442F8D32846AFF300809D
:1003200070BD00002DE9F0410646002410687529D3
:10033000314616A510D0AFF30080002802DA404203
:1003400013A507E031688A0701D512A502E0490725
:1003500004D511A5012401E0AFF3008000210A2299
:1003600006F1240709E0B0FBF2FCB0FBF2F302FB5C
:100370001C00303078541846491C0028F3D123461D
:100380002A463046BDE8F04100F0DBB9000000002D
:100390002D0000002B000000200000002DE9F05F80
:1003A000894604464FF0000ADFF824B1FB44C0F848
:1003B00020A02046E168884700287DD0252806D067
:1003C000D4E901219047206A401C2062F1E7002512
:1003D0005F462046E16888472028064607DB312E25
:1003E00005D2B81910F8200C08B10543F1E7A807A9
:1003F00001D525F00405C4F81CA00027C4F818A0F6
:100400002A2E09D0304610F015FF38B304EB8708C8
:10041000303EC8F8186019E059F8041B204604EB78
:1004200087029161E1688847012F064618D1E0698B
:10043000002820DA25F020051DE0D8F8180000EB90
:10044000800006EB40003038C8F818002046E1680C
:100450008847064610F0EEFE0028EED1012F0AD0A4
:100460002E2E08D12046E16888477F1C0646022FC1
:1004700045F02005C4DBA069002803DA404245F0BE
:100480000105A061E80701D025F01005A6B1A6F18D
:100490004100192802D8203645F400654A46314605
:1004A000204625604D46FFF77BFE60B1012807D04E
:1004B000ED1D25F0070000E007E000F1080978E7EE
:1004C00005F1040975E730467AE7206ABDE8F09F38
:1004D000EC4701000B4910B5A1F17C020A4CC2E9BE
:1004E0003712372106E000EB104342F82130074B6A
:1004F00000FB03400B1EA1F10101F4DC10BD012043
:10050000E8E70000446A0020E119D666CD0D01003D
:1005100030B505460B462A4613F8014B12F8010B7D
:1005200008B1A042F8D01CB1002802D06D1CF1E740
:10053000284630BD40EA0103024630B59B0710D182
:100540004FF0013400E008C208C91D1B9D4315EAA5
:10055000C41FF8D013F0FF0102F8011B0DD01B0AD5
:10056000F8E711F8013B002B02F8013B05D011F828
:10057000013B002B02F8013BF3D130BD10B5431C09
:1005800002E010F8011B71B18107FAD14FF001327E
:1005900002C88C1A8C4314EAC211F9D0C01A0A0698
:1005A00003D0C01E10BDC01A10BD0A0401D0801EA9
:1005B00010BD0902FCD0401E10BD032A40F230805D
:1005C00010F0030C00F0158011F8013BBCF1020F94
:1005D000624498BF11F801CB00F8013B38BF11F815
:1005E000013BA2F1040298BF00F801CB38BF00F82C
:1005F000013B11F0030300F02580083AC0F00880A9
:1006000051F8043B083A51F804CBA0E80810F5E78C
:10061000121D5CBF51F8043B40F8043BAFF300806F
:10062000D20724BF11F8013B11F801CB48BF11F8E4
:10063000012B24BF00F8013B00F801CB48BF00F8B4
:10064000012B704710B5203AC0F00B80B1E818506C
:10065000203AA0E81850B1E81850A0E81850BFF4AC
:10066000F5AF5FEA027C24BFB1E81850A0E818504B
:1006700044BF18C918C0BDE810405FEA827C24BF9F
:1006800051F8043B40F8043B08BF7047D20728BF2D
:1006900031F8023B48BF11F8012B28BF20F8023B7C
:1006A00048BF00F8012B70474FF000020429C0F04A
:1006B000128010F0030C00F01B80CCF1040CBCF194
:1006C000020F18BF00F8012BA8BF20F8022BA1EBE6
:1006D0000C0100F00DB85FEAC17C24BF00F8012BCB
:1006E00000F8012B48BF00F8012B70474FF00002C3
:1006F00000B5134694469646203922BFA0E80C5018
:10070000A0E80C50B1F12001BFF4F7AF090728BFF2
:10071000A0E80C5048BF0CC05DF804EB890028BF6E
:1007200040F8042B08BF704748BF20F8022B11F097
:10073000804F18BF00F8012B704770477047704713
:1007400070472DE9F0470D4699469246044600F160
:1007500024080168880604D5E06921F010012160B1
:1007600000E00120A84201DD471B00E00027A1694D
:100770007A1902EB0900081AA0612078C00602D499
:100780002046AFF30080002608E0D4E901211AF8E2
:1007900006009047206A401C761C20624E45F4DB20
:1007A0002078C0060AD52046AFF3008006E0D4E9E1
:1007B000012130209047206A401C2062381EA7F19A
:1007C0000107F4DC07E0D4E9012118F8050090479F
:1007D000206A401C2062281EA5F10105F3DC20469A
:1007E000AFF300802078000602D50220BDE8F08734
:1007F0000120FBE701694A1C02610878704700B5D7
:100800008FB0CDE901310021059105497944CDE949
:10081000031011466846FFF7C1FD0FB000BD000090
:10082000E5FFFFFF0A6802F8010B0A60704710B588
:10083000436913B1AFF3008001E0FFF749FD0120E8
:1008400010BD127800F124010A7000224A700122C2
:10085000EDE711684FF0FF32E9E7754600F02CF83C
:10086000AE4605006946534620F00700854618B09D
:1008700020B5FFF707FDBDE820404FF000064FF020
:1008800000074FF000084FF0000B21F00701AC46C5
:10089000ACE8C009ACE8C009ACE8C009ACE8C009E4
:1008A0008D46704710B50446AFF300802046BDE882
:1008B0001040FFF78CBC000000487047AC6A002075
:1008C00070B52048808F41F60202104381B20F209C
:1008D00000F022F900BF0F2000F058F8044641F65E
:1008E00002000440002CF6D10E2000F04FF8044620
:1008F000C4F300150DB101F0B9F913488188012046
:1009000000F00AF91048C188022000F005F90D48EE
:10091000808F80B240F004010F2000F0FDF800BF8E
:100920000F2000F033F8044604F00404002CF7D143
:100930000E2000F02BF80446C4F300260EB101F09F
:1009400095F970BDDC4801085449010810B5002430
:1009500008E00C4830F8240081B2204600F0DCF8B2
:10096000601CC4B2102CF4DB002408E0064830F808
:10097000240081B2204600F0BBF8601CC4B20D2CEC
:10098000F4DB10BDDC4801081C49010870B50546C0
:1009900012F032FF0EF07CFA45F0800500241FE0D3
:1009A00005F0800028B14FF40041244803F0D1FF46
:1009B00004E04FF40041214803F0C9FF00BF4FF4A9
:1009C00000511E4803F0C5FF00BF072C04DA4FF4A6
:1009D00000511A4803F0BBFF6806050E601CC4B244
:1009E000082CDDDB12F0F8FE4FF40051134803F041
:1009F000AEFF00BF00241BE04FF400410F4803F09E
:100A00009DFF20B94FF6FF7000EA460603E0012083
:100A100000EB460086B24FF40051084803F099FFFE
:100A200000BF4FF40051054803F091FF601CC4B2B1
:100A3000102CE1DB08F090F9304670BD000C01404D
:100A400010B50EF025FA702000F004F908F084F9D2
:100A500010BD10B50EF01CFAE02000F0FBF808F015
:100A60007BF910BD10B50EF013FA602000F0F2F81B
:100A700008F072F910BD2DE9F04704460EF008FAAF
:100A8000202000F0E7F8002504E0605D00F0E2F8C7
:100A9000681CC5B2042DF8DB08F05EF90EF0F8F919
:100AA000A02000F0D7F800F0AFF8074600F0ACF84F
:100AB000804600F0A9F8814600F0A6F806462078A6
:100AC000B84201D000BFFEE76078404501D000BFCA
:100AD000FEE7A078484501D000BFFEE7E078B042CD
:100AE00001D000BFFEE700BF08F036F9BDE8F0878F
:100AF00070B504460E4625460648808A40EA053011
:100B000085B22946052000F007F83146062000F09E
:100B100003F870BDDC48010870B504460E4612F0BB
:100B20006BFE0EF0B5F900BF00251CE004F080005C
:100B300028B14FF40041254803F00BFF04E04FF4C7
:100B40000041224803F003FF4FF400511F4803F017
:100B500000FF00BF4FF400511C4803F0F8FE600690
:100B6000040E681CC5B2082DE0DB00BF002520E0A4
:100B700006F4004028B14FF40041144803F0E9FEA8
:100B800004E04FF40041114803F0E1FE4FF400513E
:100B90000E4803F0DEFE00BF0F2D04DA4FF40051C3
:100BA0000A4803F0D4FE4FF6FF7000EA4606681CC0
:100BB000C5B2102DDCDB12F00FFE4FF400510348DC
:100BC00003F0C5FE08F0C8F870BD0000000C01403D
:100BD000704710B5012008F097FA002008F094FA49
:100BE00010BD0000014602480844B0F8000C7047F0
:100BF00000600040024A0244A2F8001C7047000056
:100C0000006000407047000070B512F0E5FD00255F
:100C100019E04FF400410E4803F090FE10B9600651
:100C2000040E03E0012000EB4400C4B24FF4005175
:100C3000074803F08EFE00BF4FF40051044803F054
:100C400086FE681CC5B2082DE3DB204670BD00009F
:100C5000000C014070B5044612F0CEFD00251FE0E7
:100C600004F0800028B14FF40041124803F071FEF7
:100C700004E04FF400410F4803F069FE00BF4FF459
:100C800000510C4803F065FE00BF072D04DA4FF455
:100C90000051084803F05BFE6006040E681CC5B2F4
:100CA000082DDDDB12F098FD4FF40051014803F0F0
:100CB0004EFE70BD000C0140F0B502460020002140
:100CC00000231446A5780726B6EB551F04D0A57857
:100CD0000626B6EB551F7DD11679D57846EA05254F
:100CE000A9B20020D2E000EB800505EBC005694EFB
:100CF00036F825502688B5426DD100EB800505EB0E
:100D0000C005644E06EB85052D8DBDB900EB800551
:100D100005EBC00506EB8505298500EB800505EB95
:100D2000C00506EB85052D8E6D1C00EB800606EBDD
:100D3000C006584F07EB860635865DE000EB800560
:100D400005EBC005534E06EB85052D8D8D4221DA4E
:100D500000EB800505EBC00506EB85052D8D4D1BD1
:100D6000ABB200EB800505EBC00506EB85052D8ECB
:100D70001D4400EB800606EBC006464F07EB8606D7
:100D8000358600EB800505EBC0053E4606EB850584
:100D9000298531E000EB800505EBC0053D4E06EBF3
:100DA00085052D8D8D4227DD00EB800505EBC00507
:100DB00006EB85052D8D4FF6FF76751B0D44ABB206
:100DC00000EB800505EBC005324E06EB85052D8E48
:100DD0001D4401E05DE057E000EB800606EBC00635
:100DE0002C4F07EB8606358600EB800505EBC0052A
:100DF0003E4606EB8505298500EB800505EBC00521
:100E0000244E06EB850595F8225095B9012500EB97
:100E1000800606EBC0061F4F07EB860686F82250B9
:100E2000002500EB800606EBC00607EB8606756220
:100E30002AE000EB800505EBC005164E06EB8505A4
:100E40006D6AC5B1002B16DD00EB800505EBC00512
:100E500006EB8505ED6A00EB800606EBC0060D4F3C
:100E600007EB8606766A354400EB800606EBC00683
:100E700007EB8606F562002500EB800606EBC00650
:100E8000044F07EB86067562451CE8B22028FFF682
:100E90002AAFF0BDEC61002070B5014600200023B0
:100EA0000A4694780125B5EB541F02D09478640962
:100EB00074BB0D79CC7845EA0424A3B2002024E069
:100EC00000EB800404EBC004464D35F8244015883F
:100ED000AC4218D100EB800404EBC004414D05EB9B
:100EE00084042383012400EB800505EBC0053D4EFF
:100EF00006EB8505AC74002400EB800505EBC0050E
:100F000006EB85056C61441CE0B22028D8DB68E064
:100F100094780725B5EB541F04D094780625B5EBDB
:100F2000541F5ED10D79CC7845EA0424A3B2002089
:100F300055E000EB800404EBC0042A4D35F8244052
:100F40001588AC4249D1002400EB800505EBC005B3
:100F5000244E06EB8505AC7400EB800404EBC00462
:100F6000354605EB8404646974B300EB800404EB3C
:100F7000C00405EB8404248B9C4225D100EB800443
:100F800004EBC00405EB8404E46900EB800505EB89
:100F9000C00506EB85056D692C4400EB800505EB6B
:100FA000C00506EB8505EC6100EB800404EBC00492
:100FB000354605EB8404248C641C00EB800505EBAE
:100FC000C00506EB85052C84002400EB800505EBAD
:100FD000C005044E06EB85056C61441CE0B2202878
:100FE000A7DB70BDEC61002030B502460020114641
:100FF0008B780124B4EB531F03D08B785B09002B53
:101000007DD10020B7E000EB800303EBC003BF4CB1
:1010100034F823300C88A34212D1102811DA0123AE
:1010200000EB800404EBC004B84D05EB8404A3710D
:10103000002300EB800404EBC00405EB840423814F
:1010400097E010287DDB20287BDA0024A0F1100334
:1010500003EB830505EBC303AC4D05EB83039C71E8
:10106000A0F1100303EB830404EBC3032C4604EB51
:1010700083031B89002B71D0A0F1100303EB8304C1
:1010800004EBC3032C4604EB83031B8941F2883431
:10109000A34263DAA0F1100303EB830404EBC30360
:1010A0002C4604EB8303DC68A0F1100303EB8305FB
:1010B00005EBC303954D05EB83031B891C44A0F18D
:1010C000100303EB830505EBC303904D05EB83038E
:1010D000DC6000EB800303EBC0032C4604EB8303CE
:1010E000DC68A0F1100303EB830505EBC303874D18
:1010F00005EB83031B89234400EB800400E03EE002
:1011000004EBC00405EB8404E360A0F1100303EBDF
:10111000830404EBC3032C4604EB83031B8A5B1C90
:101120009CB2A0F1100303EB830505EBC303774DDD
:1011300005EB83031C8200EB800303EBC0032C460A
:1011400001E016E00AE004EB83031B8A5B1C00EB62
:10115000800404EBC00405EB840423820024A0F186
:10116000100303EB830505EBC303684D05EB830315
:101170001C81431CD8B22028FFF645AFC5E08B7810
:101180000724B4EB531F04D08B780624B4EB531F11
:1011900079D10020B6E000EB800303EBC0035B4C89
:1011A00034F823300C88A34212D1102811DA01231D
:1011B00000EB800404EBC004544D05EB8404E371A0
:1011C000002300EB800404EBC00405EB840463817E
:1011D00096E010287DDB20287BDA0024A0F11003A4
:1011E00003EB830505EBC303484D05EB8303DC717B
:1011F000A0F1100303EB830404EBC3032C4604EBC0
:1012000083035B89F3B3A0F1100303EB830404EBC6
:10121000C3032C4604EB83035B8941F28834A34269
:1012200063DAA0F1100303EB830404EBC3032C4641
:1012300004EB8303DC68A0F1100303EB830505EBEB
:10124000C303324D05EB83035B891C44A0F11003FB
:1012500003EB830505EBC3032C4D05EB8303DC6037
:1012600000EB800303EBC0032C4604EB8303DC6834
:10127000A0F1100303EB830505EBC303234D05EB3E
:10128000830301E031E040E05B89234400EB80040C
:1012900004EBC00405EB8404E360A0F1100303EB4E
:1012A000830404EBC3032C4604EB83031B8A5B1CFF
:1012B0009CB2A0F1100303EB830505EBC303134DB0
:1012C00005EB83031C8200EB800303EBC0032C4679
:1012D00000E015E004EB83031B8A5B1C00EB800439
:1012E00004EBC00405EB840423820024A0F1100366
:1012F00003EB830505EBC303044D05EB83035C811E
:10130000431CD8B22028FFF646AF30BDEC61002068
:1013100010B50146002000BF0AE031F8102000EBB4
:10132000800303EBC003044C24F82320421CD0B2FA
:101330002028F2DB10BD0000EC610020F0B5024671
:101340000020002100231446A5780726B6EB551F80
:1013500004D0A5780626B6EB551F7DD11679D57831
:1013600046EA0525A9B2002089E000EB800505EBDF
:10137000C005454E36F825502688B5427DD100EB94
:10138000800505EBC005404E06EB85056D88BDB9AF
:1013900000EB800505EBC00506EB8505698000EBD9
:1013A000800505EBC00506EB8505AD886D1C00EBDF
:1013B000800606EBC006344F07EB8606B5805CE07E
:1013C00000EB800505EBC0052F4E06EB85056D880B
:1013D0008D4221DA00EB800505EBC00506EB8505A3
:1013E0006D884D1BABB200EB800505EBC00506EB2D
:1013F0008505AD881D4400EB800606EBC006224F34
:1014000007EB8606B58000EB800505EBC0053E4680
:1014100006EB8505698030E000EB800505EBC00533
:10142000194E06EB85056D888D4226DD00EB8005A3
:1014300005EBC00506EB85056D884FF6FF76751B3D
:101440000D44ABB200EB800505EBC0050E4E06EB7C
:101450008505AD881D4400E014E000EB800606EB36
:10146000C006094F07EB8606B58000EB800505EB4B
:10147000C0053E4606EB85056980451CE8B220287C
:10148000FFF673AFF0BD0000EC610020F0B503463D
:101490000021002000240025002200BF2BE001EBEA
:1014A000810606EBC1061B4F37F826609E4220D10D
:1014B00001EB810606EBC10607EB8606328E00269D
:1014C00001EB810707EBC107DFF848C00CEB87078A
:1014D0003E8601EB810606EBC106674607EB8606F2
:1014E000F56A002601EB810707EBC1070CEB8707C4
:1014F000FE624E1CF1B22029D1DB4AB1B5FBF2F4F9
:101500004FF6FF76B44201D3304602E0A0B200E0CD
:101510000020F0BDEC610020F0B503460021002062
:1015200000240025002200BF2BE001EB810606EB22
:10153000C1061B4F37F826609E4220D101EB810681
:1015400006EBC10607EB8606328E002601EB81070B
:1015500007EBC107DFF848C00CEB87073E8601EBBD
:10156000810606EBC106674607EB8606F46A00268D
:1015700001EB810707EBC1070CEB8707FE624E1CEE
:10158000F1B22029D1DB4AB1B4FBF2F56FF000468D
:10159000B54201D3304602E0284600E00020F0BD0D
:1015A000EC610020F0B50346002100200024002556
:1015B000002200BF2BE001EB810606EBC1061A4FAB
:1015C00037F826609E4220D101EB810606EBC1066A
:1015D00007EB8606F569002601EB810707EBC107DB
:1015E000DFF844C00CEB8707FE6101EB810606EBD8
:1015F000C106674607EB8606328C002601EB8107A1
:1016000007EBC1070CEB87073E844E1CF1B2202983
:10161000D1DB42B1B5FBF2F44FF6FF76B44201D311
:10162000304600E0A0B2F0BDEC610020F0B503460A
:101630000021002000240025002200BF2BE001EB48
:10164000810606EBC1061A4F37F826609E4220D16C
:1016500001EB810606EBC10607EB8606F56900265D
:1016600001EB810707EBC107DFF844C00CEB8707EC
:10167000FE6101EB810606EBC106674607EB8606B5
:10168000328C002601EB810707EBC1070CEB8707C3
:101690003E844E1CF1B22029D1DB42B1B5FBF2F4FD
:1016A0006FF00046B44201D3304600E02046F0BD62
:1016B000EC6100202DE9F04786B006460024A146E3
:1016C000A246002500BF2BE004EB840000EBC40021
:1016D0002F4931F82000B04220D104EB840000EB08
:1016E000C40001EB8000D0F80CA0002004EB8401C2
:1016F00001EBC401264A02EB8101C86004EB8400BF
:1017000000EBC400114601EB8000058A002004EBC9
:10171000840101EBC40102EB81010882601CC4B2A8
:10172000202CD1DB7DB3284612F0FDFC074688460D
:10173000504612F0F8FC0022164BCDE9000112F0E1
:1017400041FD3A464346CDE9020112F067FBCDE97F
:10175000040112F025FB81460F49484612F09EFE17
:10176000814649460D4812F099FE8146484612F0DE
:101770005DFE0B4A0B4BCDE9040112F023FD074639
:1017800012F00EFB8146484606B0BDE8F087000027
:10179000EC6100200000F03F00007A44000040406F
:1017A000CDCCCCCCCCCC0C4030B5024600210020B6
:1017B00000BF1AE001EB810303EBC1030C4C34F8CA
:1017C000233093420FD101EB810303EBC10304EB00
:1017D00083039888002301EB810404EBC104044DCA
:1017E00005EB8404A3804B1CD9B22029E2DB30BD79
:1017F000EC61002070477047704770477047704732
:10180000704770477047704701B50098C008009056
:1018100002E00098401E009000980028F9D108BD11
:1018200010B5012000F0B0F900287DD00121494811
:1018300003F084F8002878D12021474803F089F884
:1018400046480078002870D00A20FFF79FF84449E6
:10185000444A1278885443490978C1EBC101424A8D
:1018600088184249097811F0C9FE3E480078C0EB5B
:10187000C0003D490844407800285ED00F20FFF7A3
:1018800085F800F40070002857D136490978C1EB7B
:10189000C101354A881807F0C3F800284DD0002050
:1018A000334908802F490978C1EBC1012E4A8818B5
:1018B00011F0E2F92B4A1278C2EBC2022A4BD0187F
:1018C0002C4A51688847274A1278C2EBC202264B3D
:1018D000D018284AD1688847224A1278C2EBC2023F
:1018E000214BD018234A516988471E4A1278C2EB0F
:1018F000C2021D4BD0181F4A116A8847194909783E
:10190000C1EBC101184A881810F0D8FE15480078BC
:10191000401C1449087008460078182190FBF1F229
:1019200001FB12000F4901E012E00EE008701248BE
:10193000807D10B1102000F01FF90121054802F050
:10194000FDFF10B9072011F013FE012000F0D6F8BA
:1019500010BD000000080140000C014054000020B0
:1019600024080020E20000207C0800202A0000203B
:10197000D0000020B4060020C007002010B54FF4AE
:10198000806000F001F918B14FF4806000F0B6F803
:101990004FF4006000F0F8F818B14FF4006000F068
:1019A000ADF84FF4805000F0EFF818B14FF48050CC
:1019B00000F0A4F84FF4005000F0E6F818B14FF42E
:1019C000005000F09BF84FF4804000F0DDF818B1B3
:1019D0004FF4804000F092F84FF4004000F0D4F84B
:1019E00018B14FF4004000F089F810BD10B51A4846
:1019F0000078062805D111F095FE012000F07EF850
:101A000022E015480078072807D11448007811F023
:101A1000C9FD012000F072F816E00F480078032895
:101A200012D00D48007804280ED00B480078052805
:101A30000AD10A4801780A48006811F031FE0949C4
:101A40000870012000F05AF80020034908700220B5
:101A500000F054F810BD000051000020500000209C
:101A60004C0000205200002010B5042000F08CF83B
:101A700010B1042000F042F810BD10B5082000F0AD
:101A800083F810B1082000F039F810BD10B510200F
:101A900000F07AF858B101E010F0FEFF0448007839
:101AA000044909788842F7D1102000F027F810BDCA
:101AB000E4000020E200002010B5402000F064F8AF
:101AC00010B1402000F01AF8802000F05DF810B14D
:101AD000802000F013F84FF4807000F055F818B132
:101AE0004FF4807000F00AF84FF4007000F04CF8EA
:101AF00018B14FF4007000F001F810BD0149086002
:101B000070470000140401401CB50121022002F0BE
:101B100033FE0220009000208DF804000C208DF888
:101B2000050001208DF80600684600F041F800210C
:101B3000084602F021FE0120009000208DF80400EC
:101B40000C208DF8050001208DF80600684600F095
:101B50002FF80421022002F00FFE10200090002038
:101B60008DF804000C208DF8050001208DF806008A
:101B7000684600F01DF81CBD024909680143014A8E
:101B80001160704710040140014600200022074BFD
:101B90001B6803EA0102054B14331B680B4013B1A9
:101BA0000AB1012000E0002070470000000401405D
:101BB0008179002946D02A49096802689143284A58
:101BC0001160111D096802689143254A121D1160B8
:101BD0000179244A1144D1F80014026811430279B2
:101BE000204B1A44C2F800141D49083109680268E4
:101BF00091431B4A08321160111D09680268914324
:101C0000174A0C321160417910290ED1111F096851
:101C100002681143124A08321160111D09680268F6
:101C200011430F4A0C32116018E041790D4A1144FA
:101C3000D1F800140268114342790A4B1A44C2F8E1
:101C400000140BE00179074A1144D1F8001402682E
:101C500091430279034B1A44C2F800147047000004
:101C6000000401400000014072B6704700BFFEE76B
:101C700062B670470149C86070470000002002400A
:101C800070B50546042440F6FF7000F0A3F8044642
:101C9000042C19D10D48006940F002000B4908617D
:101CA00008464561006940F04000086140F6FF7059
:101CB00000F090F80446012C06D00448006941F673
:101CC000FD71084001490861204670BD00200240B6
:101CD00004200B49C96801F0010109B101200EE09F
:101CE0000749C96801F0040109B1022007E004496D
:101CF000C96801F0100109B1032000E00420704719
:101D000000200240704700000348006940F0800056
:101D10000149086170470000002002400549096838
:101D200021F01001034A1160114609680143116056
:101D3000704700000020024070B505460E4604249E
:101D40000F2000F047F80446042C25D11348006901
:101D500040F00100114908612E800F2000F03AF890
:101D60000446042C0FD1300C68800F2000F032F8AC
:101D70000446012C10D00948006941F6FE71084064
:101D80000649086108E0012C06D00448006941F6C4
:101D9000FE71084001490861204670BD00200240E4
:101DA0000549096801F03801034A116011460968C4
:101DB00001431160704700000020024002480349BF
:101DC000486003484860704723016745002002408F
:101DD000AB89EFCD70B504460425FFF779FF0546C2
:101DE00005E00FF030FAFFF773FF0546641E012D82
:101DF00001D1002CF5D104B90525284670BD00009D
:101E000010B504461148007878B16000104A32F8E5
:101E100010100120FEF780FE6000401C0C4A32F8D2
:101E200010100220FEF778FE0EE06000094A32F83A
:101E300010100120FEF770FE6000401C054A32F8C9
:101E400010100220FEF768FE10BD000026000020E2
:101E5000544901086049010810B500240C48007875
:101E6000A0B90C480078012800D110BD01F0B8FFDE
:101E700004460CB10120F8E7012006490870002053
:101E800005490870054908700320EEE70120ECE7DA
:101E9000090200200A020020900200209102002086
:101EA00010B500240C480078A0B90C48007801282F
:101EB00000D110BD02F032FB04460CB10120F8E75E
:101EC000012006490870002005490870054908707E
:101ED0000320EEE70120ECE7090200200A020020BF
:101EE000900200209102002010B58AB000244948D9
:101EF000007800287ED110208DF8040083208DF812
:101F0000050004208DF80600434800788DF807008E
:101F10004149491C02A8FEF70DFB3F48C17A8DF8E4
:101F2000121000F10C010DF11300FEF703FB3A480B
:101F3000017C8DF81710407C9DF8181060F30101AA
:101F40008DF818103448407C81089DF8180061F322
:101F500082008DF818003048407CC1089DF81800B8
:101F600061F3C3008DF818002B48407C01099DF8EF
:101F7000180061F304108DF818002748407C4109CF
:101F80009DF8180061F345108DF818002248407C38
:101F900081099DF8180061F386108DF818001E481D
:101FA000B0F81100C109BDF8180061F3CF1001A904
:101FB000ADF818001848C17C8DF81A10017D8DF815
:101FC0001B10B0F8151001A8ADF81C101248C17D07
:101FD0008DF81E10017E8DF81F10417E01A801773B
:101FE0000D48D0F81A10CDF821100C4801F0B4FBC0
:101FF000044600E00CE009490819212201A9FEF776
:10200000DCFA04F121000649088000200AB010BD66
:102010000120FBE709020020181000208F14002087
:102020008C02002038B500240F480078C8B9102071
:102030008DF8000083208DF8010001208DF802004A
:102040000A4801F089FB044608482044BDF8001006
:1020500001809DF802108170E01C05490880002075
:1020600038BD0120FCE70000090200208F14002089
:102070008C02002030B585B000240025142168466C
:10208000FEF734FB1B480078002830D110208DF873
:10209000000083208DF8010007208DF8020016480B
:1020A00000788DF8030000BF06E01348401C015D76
:1020B00001A80155601CC4B2102CF6DB0F4801F0DA
:1020C0004BFB05460D49481914226946FEF775FA7F
:1020D00009490978C81DC11700EB5171CC10641C67
:1020E000E81C204406490880002005B030BD0120CE
:1020F000FBE7000009020020361000208F140020AA
:102100008C0200201CB5002412480078F8B9102079
:102110008DF8000083208DF8010002208DF8020068
:1021200007F0B2F9CDF803000B4801F015FB0446A7
:102130000948204400990160BDF8041081809DF891
:1021400006108171E01D0549088000201CBD01209A
:10215000FCE70000090200208F1400208C02002000
:102160002DE9F84304460E464FF0000800270025ED
:10217000DFF88C902348007800B901E0DFF8889000
:1021800022480078002838D1042E34D12078054325
:10219000607845EA0025A07845EA0045E07845EA00
:1021A00000651B484560416800230822484601F04D
:1021B00027FC8046B8F1010F03D001208DF8030001
:1021C00002E000208DF8030010208DF8000084202C
:1021D0008DF8010003208DF802000E4801F0BCFAD2
:1021E00007460C48384400990160381D0A490880A8
:1021F0000020BDE8F8830120FBE70120F9E700009B
:1022000000380140F6000020004400400902002090
:10221000471000208F1400208C0200207FB5044658
:102220000D46002600200090019002904248007860
:1022300000287FD1092D7BD1BDF80000217808430B
:10224000ADF80000BDF80000617840EA0120ADF86B
:1022500000009DF80200A17808438DF802009DF867
:102260000300E17808438DF803009DF8040021790C
:1022700008438DF80400DDF8050061790843CDF8C6
:102280000500DDF80500A1790843CDF80500DDF86B
:102290000500E1790843CDF80500DDF80500217A55
:1022A0000843CDF80500BDF80000B0F57A7F0BDCDF
:1022B0009DF80200FF2807DC9DF80300962803DC48
:1022C0009DF80400322802DD022004B070BDBDF884
:1022D00000001A49A1F815009DF802101748C175B1
:1022E0009DF8031001769DF804104176DDF8051085
:1022F000C0F81A1001F0B8FA10208DF80C008420F4
:102300008DF80D0004208DF80E000D4801F024FA20
:1023100006460B483044BDF80C1001809DF80E10A5
:102320008170F01C074908800020CEE702E0FFE73B
:102330000120CAE70120C8E7090200201810002088
:102340008F1400208C02002038B5002410208DF856
:10235000000084208DF8010001208DF8020009485A
:1023600001F0FAF9044607482044BDF80010018046
:102370009DF802108170E01C034908800020034989
:10238000087038BD8F1400208C0200200902002044
:102390002DE9F04186B005460E460027B8460024D8
:1023A000022E03DA022006B0BDE8F081142168464F
:1023B000FEF79CF9701E1FFA80F823480078002869
:1023C00040D19DF80000297808438DF800000024D2
:1023D0000AE00DF10100005D611C695C08430DF12C
:1023E00001010855601C84B24445F2DB9DF80000F1
:1023F00016490870002407E00DF10100015D134843
:10240000401C0155601C84B2102CF5DB01F02CFA45
:1024100010208DF8140084208DF8150007208DF809
:1024200016000B4801F098F9074609483844BDF8F2
:10243000141001809DF816108170F81C0549088061
:102440000020B0E70120AEE709020020361000208E
:102450008F1400208C020020F8B504460E46002799
:1024600000251E480078002836D1042E32D120786D
:102470000543607845EA0025A07845EA0045E07804
:1024800045EA00650121080706F0FEFD012006F07F
:102490006FFC07F08FF9284607F0E2F807F08AF999
:1024A00010208DF8000084208DF8010002208DF8A6
:1024B00002000B4801F050F9074609483844BDF8BE
:1024C000001001809DF802108170F81C05490880F9
:1024D0000020F8BD0120FCE70120FAE709020020F6
:1024E0008F1400208C02002030B5EDB000240025B0
:1024F0004FF4DA716846FEF7F9F87C480078002856
:102500007ED110208DF8000082208DF8010005207A
:102510008DF802004FF4D4717548FEF7E7F874485F
:1025200001F076FC012801D16DB030BD7048006823
:10253000CDF803006F48B0F81510ADF80710C17D55
:102540008DF80910017E8DF80A10417E8DF80B1070
:10255000D0F81A100391664801798DF81010002404
:10256000A3E004EB840000EBC4016148401D415C22
:1025700004EB840000EBC4020DF11100815404EB64
:10258000840000EBC4015A48401D0844417804EB24
:10259000840000EBC4020DF111001044417004EB03
:1025A000840000EBC4015248401D0844817804EBCC
:1025B000840000EBC4020DF111001044817004EBA3
:1025C000840000EBC4014A48401D0844C17804EB74
:1025D000840000EBC4020DF111001044C17004EB43
:1025E000840000EBC4014248401D0844017904EB1B
:1025F000840000EBC4020DF111001044017100E0F1
:1026000072E004EB840000EBC4013948401D08442B
:10261000417904EB840000EBC4020DF11100104479
:10262000417104EB840000EBC4013148401D0844B3
:10263000817904EB840000EBC4020DF11100104419
:10264000817104EB840000EBC4012948401D08445B
:10265000C17904EB840000EBC4020DF111001044B9
:10266000C17104EB840000EBC4012148401D084403
:10267000017A04EB840000EBC4020DF11100104458
:10268000017204EB840000EBC4011948401D0844AA
:10269000D0F8091004EB840000EBC4020DF1110026
:1026A0001044C0F80910601CC4B211480079A0425F
:1026B0003FF757AF104801F04FF805460E4948194B
:1026C00040F2B1126946FDF778FF9DF81000C0F1A5
:1026D000200000EB800101EBC00105F2B110401AAF
:1026E0000649088000201FE701201DE7090200209D
:1026F000A0290020181000208F1400208C02002038
:102700007FB50020039002900024002500900190E6
:102710001F480078002838D110208DF80000822052
:102720008DF8010008208DF8020002A903A801F02D
:102730000BFF012801D104B070BD00240AE0154848
:1027400000EB44000088BDF80C10884200D103E083
:10275000601CC4B2202CF2DB00BF601CC4B28DF838
:1027600003409DF808108DF804100B4800F0F4FFAA
:10277000054609482844009901609DF8041001713C
:10278000681D064908800020D5E70120D3E7000036
:10279000090200204F1000208F1400208C0200201E
:1027A00070B50446002500261048007801281CD189
:1027B0000F480078C8B92046E11704EB5171C1F306
:1027C000C705E11704EB5171C910A4EBC101CEB2EA
:1027D0000848405D0121B140084030B1064931F858
:1027E00014000649CA6E0121904770BDF400002014
:1027F00009020020371000203C0800200C020020B5
:1028000070B50446002500261048007801281CD128
:102810000F480078C8B92046E11704EB5171C1F3A5
:10282000C705E11704EB5171C910A4EBC101CEB289
:102830000848405D0121B140084030B1064931F8F7
:1028400014000649CA6E0021904770BDF4000020B4
:1028500009020020371000203C0800200C02002054
:102860002DE9F043ADF5806D02460027BC460026F9
:102870000C460025881E105C5E2803D0881E105C64
:102880005D2815D1C81E105C7D280DD1881E105CF6
:102890005E2802D14FF07E0C0DE0881E105C5D2892
:1028A00009D14FF07D0C06E0881E12F800C002E04E
:1028B000881E12F800C010787E2803D1481E105CD4
:1028C0007E2804D001200DF5806DBDE8F083A01EA8
:1028D00084B2881E105C5E2803D0881E105C5D28C0
:1028E00009D1C81E105C7D2802D1A01E84B204E06C
:1028F000601E84B201E0601E84B2002336E0581CE2
:10290000105C7D2828D1981C105C5E280BD14FF0FC
:102910007E09284605F101081FFA88F50DF8009098
:10292000581C83B220E0981C105C5D2809D14FF040
:102930007D09A846681C85B20DF80890581C83B222
:1029400012E0581C12F80090284605F101081FFA01
:1029500088F50DF8009007E0581C12F80090A84682
:10296000681C85B20DF80890581C83B2A342C6DBE0
:102970009DF80060012304E01DF803004640581C48
:1029800083B2AB42F8DBB44501D0012700E0002759
:10299000384698E770B504460B46002500262046C9
:1029A00000F0C8FE06469E4201D0012500E0002549
:1029B000284670BDF0B504460E46002200230025CF
:1029C0003146207800F0010020B1A278E378481E5B
:1029D00081B203E0E2782379881E81B2C81E81B2F9
:1029E000812A06D1012B04D109B10120F0BD0020BC
:1029F000FCE7802A06D1012B04D109B10120F5E7BB
:102A00000020F3E7812A07D1022B05D1042901D048
:102A10000120EBE70020E9E7802A06D1022B04D150
:102A200009B10120E2E70020E0E7812A07D1032B6A
:102A300005D1042901D00120D8E70020D6E7812A5A
:102A400007D1042B05D1092901D00120CEE70020B0
:102A5000CCE7802A06D1042B04D109B10120C5E7B7
:102A60000020C3E7852A06D1052B04D109B1012036
:102A7000BCE70020BAE7802A07D1062B05D1082938
:102A800001D00120B2E70020B0E7812A1FD1072B37
:102A90001DD1022901DA0120A8E7207800F0010009
:102AA00008B1257900E065790DB1802D01DD0120A7
:102AB0009CE7E81DC71700EB5777C7F3C705681CED
:102AC000C5B2A94201D0012090E700208EE7802AFC
:102AD00006D1072B04D109B1012087E7002085E743
:102AE000852A06D1082B04D109B101207EE70020F8
:102AF0007CE7852A06D1092B04D109B1012075E7AD
:102B0000002073E7012071E710B50346002400227E
:102B10000021187800F0010010B19A78D97801E00E
:102B2000DA781979802A0BD0812A09D0822A07D035
:102B3000832A05D0842A03D0852A01D0862A01D190
:102B4000002401E0012010BD01290FD002290DD081
:102B500003290BD0042909D0052907D0062905D05F
:102B6000072903D0082901D0092901D1002401E057
:102B70000120E8E72046E6E70146002000220B7826
:102B800003F001030BB14A7800E08A78102A01D0E3
:102B9000012000E000207047F0B5ADF5806D0246E1
:102BA0000C462546002310787E2803D1601E105C59
:102BB0007E2803D000200DF5806DF0BDA81E85B2E3
:102BC000A01E105C5E2803D0A01E105C5D2809D1F9
:102BD000E01E105C7D2802D1A81E85B204E0681EAC
:102BE00085B201E0681E85B200212EE0481C105C11
:102BF0007D2821D1881C105C5E2808D17E271846CC
:102C00005E1CB3B20DF80070481C81B21BE0881C3A
:102C1000105C5D2808D17D2718465E1CB3B20DF804
:102C20000070481C81B20EE0481C175C1E46581C00
:102C300083B20DF8067006E0481C175C18465E1C4F
:102C4000B3B20DF80070481C81B2A942CEDB00215E
:102C500004E01DF801005054481C81B29942F8DB91
:102C60001D462846A7E7F0B5ADF5806D03460D4635
:102C70000020002200211C78012203E09E5C7440A9
:102C8000561CB2B2AA42F9DB00222BE09E5C7E2EDB
:102C90000ED14FF07D0C0E464F1CB9B20DF806C098
:102CA0004FF05E0C0E464F1CB9B20DF806C017E08F
:102CB0009E5C7D2E0DD1B4460E464F1CB9B20DF868
:102CC00006C04FF05D0C0E464F1CB9B20DF806C0A1
:102CD00006E013F802C00E464F1CB9B20DF806C04C
:102CE000561CB2B2AA42D1DB7E2C0ED14FF07D0C25
:102CF0000E464F1CB9B20DF806C04FF05E0C0E46E2
:102D00004F1CB9B20DF806C014E07D2C0DD1A446BD
:102D10000E464F1CB9B20DF806C04FF05D0C0E46C2
:102D20004F1CB9B20DF806C004E00E464F1CB9B2F4
:102D30000DF806407E261E70002204E01DF8027089
:102D4000561C9F55B2B28A42F8DB7E274E1C9F5517
:102D50008E1CB1B208460DF5806DF0BD70B5ADF5B5
:102D6000806D02460C460020002300212046157885
:102D700005F0010525B15D1CABB2451EA8B203E00C
:102D80009D1CABB2851EA8B2DD1CABB2C51EA8B29D
:102D9000002105E05D18555D0DF801504D1CA9B2EC
:102DA0008142F7DB002104E01DF8015055544D1C11
:102DB000A9B28142F8DB0DF5806D70BD72B6704727
:102DC00038B50446002510208DF8000086208DF8C7
:102DD000010009208DF802008DF80340054800F03D
:102DE000BBFC05460348284400990160281D0249A0
:102DF000088038BD8F1400208C02002010B50024FC
:102E00002F480078012827D1FFF76EFB044644B90C
:102E100002202C49087000202B49087028490870AE
:102E200010BD012400202649087000F0D9FFA1023E
:102E30002648FDF739FCA1022548FDF735FC0020A6
:102E400024490880244908801E4908700021012077
:102E500000F066FD0120E3E719480078022827D139
:102E6000FFF74EFC044644B90220164908700020C2
:102E70001549087012490870D2E701240020104952
:102E8000087001F04BFBA1021048FDF70DFCA102F8
:102E90000F48FDF709FC00200E4908800E49088004
:102EA000084908700021012000F03AFD0120B7E731
:102EB00003480078032801D00120B1E72046AFE79E
:102EC0000B020020080200200A0200208F100020C0
:102ED0008F1400208A0200208C02002070B500248C
:102EE0000025614801886148FFF7BAFC04463CB1FF
:102EF0000120FFF765FF02205D490870002070BDCA
:102F0000594801885948FFF747FE0546002D7DD0F6
:102F1000554805805748017D5448FFF73BFD04465E
:102F2000ACB10124A1025148FDF7BEFBA1025248F9
:102F3000FDF7BAFB00204C490880504908804C49F5
:102F400008700021012000F0EBFC0120D7E7474882
:102F5000FFF712FE04463CB10220FFF731FF0220CA
:102F6000434908700020CAE74048FFF7CDFD0446FA
:102F70003CB10320FFF724FF02203D4908700020E8
:102F8000BDE7394801883948FFF714FD04463CB1D4
:102F90000420FFF715FF0220354908700020AEE736
:102FA00031480188314800F065FE044624B902200A
:102FB0002F4908700020A2E7022C14D161022B488F
:102FC000FDF772FB61022C48FDF76EFB00202649DD
:102FD00008802A4908800420FFF7F2FE02202449D5
:102FE000087000208BE7032C18D14FF480611F4834
:102FF000FDF75AFB4FF480611F48FDF755FB002099
:10300000194908801D490880194900E01CE0087032
:103010000021012000F084FC002070E70124A102BF
:103020001248FDF741FBA1021348FDF73DFB0020CC
:103030000D490880114908800D49087000210120C0
:1030400000F06EFC01205AE70124A1020748FDF7B9
:103050002BFB00200449088005490870002101204D
:1030600000F05EFC01204AE78A0200208F10002059
:1030700008020020C00700208F1400208C020020CE
:1030800070B50026002400251848008820F400446C
:103090007CB94FF480611648FDF706FB0020134908
:1030A0000880144908700021012000F039FC01203B
:1030B00070BD21460E4800F093FD05467DB94FF4E2
:1030C00080610B48FDF7F0FA0020084908800949A3
:1030D00008700021012000F023FC0120E8E70348EC
:1030E00005800320034908703046E1E78A0200208A
:1030F0008F1000200802002070B5002400252C4805
:10310000007860BB2B48008898B12A4801882A487B
:10311000FFF7A9FD054627480580012024490870CE
:103120000220264908700121002000F0F9FB002050
:1031300070BD0124A1022248FDF7B6FAA1021E4883
:10314000FDF7B2FA00201F4908801A4908801B4980
:1031500008700021012000F0E3FB0120E8E715489A
:10316000008800F40040E8B10021084600F0D8FBD8
:1031700000200F4908704FF480611148FDF794FA60
:103180004FF480610C48FDF78FFA00200D4908804C
:1031900008490880094908700021012000F0C0FB9F
:1031A0000020C5E70220054908702046C0E700005E
:1031B000880200208C0200208F14002008020020CA
:1031C0008F1000208A02002070B500250024254EB3
:1031D0002548007800B900E0244E254800F0BAF8F0
:1031E000044600F0FBFA601C28B9224800F024FADB
:1031F00000F03AFB08E020480068A04204D02046D6
:1032000000F01AFA00F030FBFFF7D8FD0023082287
:103210004FF41651304600F0F3FB05464FF4806141
:103220001648FDF741FA4FF480611548FDF73CFA66
:103230000020144908801449088000F067F8012D27
:1032400007D00020114908700021012000F068FB20
:1032500006E004200D4908700021084600F060FBDC
:10326000284670BD00380140F600002000440040B0
:1032700000E8030878563412471000208F10002011
:103280008F1400208A0200208C02002008020020F7
:1032900010B500241948008800F4004038B100211E
:1032A000084600F03DFB01201549087024E001F0BC
:1032B000E1F968B91348007850B10021084600F0E0
:1032C0002FFB02201049087005200D49087013E0FB
:1032D00001F0AEF868B90B48007850B100210846FB
:1032E00000F01EFB01200849087005200449087001
:1032F00002E0002002490870204610BD8A0200202A
:10330000080200200A0200200B02002062B670476B
:103310007CB50446002000900025042001900C4854
:10332000001BC00A00903520FEF7A4FC00BF07E098
:103330004FF4006101FB0540FEF7A2FC01906D1CFB
:103340000098854203D29DF804000428F0D07CBD8B
:103350000000040810B504463520FEF78BFC2068F9
:1033600010BDF8B505460E461746002408E056F88D
:10337000241005EB8400FEF7DFFC0090601C84B293
:103380009DF80000042801D1BC42F0DB9DF800004C
:10339000F8BD000008B5684600F01EFB1248008822
:1033A00000F40040F8B910480088B0F5806F14DAD6
:1033B00000210E480CF0C8F80B48008818B901210C
:1033C0000A480CF01DF89DF8002007490888411CA8
:1033D000054B198006490A5405E00348008840F46B
:1033E00000400149088008BD8A020020002C0140ED
:1033F0008F10002070B5154D1548007800B900E019
:10340000144D15490C88611C134A11801349085D3D
:1034100000F0CAFB1048008811490988884204D08E
:103420000D480088B0F5806F0EDB002240F2277156
:1034300028460CF096FA00200749088008480088C2
:1034400040F400400649088070BD0000003801408B
:10345000F6000020004400408E0200208F1400205F
:103460008C020020014600200A7802F001020AB115
:10347000C87800E008797047014600200A7802F019
:1034800001020AB1887800E0C878704770B5054637
:10349000002400BF07E035F81410054800EB440095
:1034A0000180601CC4B2202CF5DB00F0DDF970BD9A
:1034B0004F1000202DE9F04705460027B846B946D1
:1034C00000260024002D7DD057480088401C564916
:1034D000088008460088A84274DB002008804FF46A
:1034E000D4715248FDF702F905F0CEFF4F4908604C
:1034F00000BF08E04E4800EB4400008808B1781C8B
:10350000C7B2601CC4B2202CF4DB48480771002409
:1035100082E0474800EB4400008800287AD0444A03
:1035200002EB44021088434A916888478046B8F10C
:10353000FF0F01DD4FF0FF083D4A02EB4402108807
:103540003C4A91698847814699FBF5F04FF4FA713E
:1035500090FBF1F01FFA80F9354A02EB4402108823
:10356000344A516A884706464FF47A7096FBF0F069
:1035700086B2FF2E00DDFF26601CC1B204EB840082
:1035800000EBC4022948401D8154002104EB840053
:1035900000EBC4022548401D1044417004EB840038
:1035A00000EBC4022148401D1044817004EB8400EC
:1035B00000EBC4021D48401D104480F8038004EB5A
:1035C000840000E02EE000EBC4021848401D1044C7
:1035D00080F8049004EB840000EBC4021348401D03
:1035E0001044417104EB840000EBC4020F48401DFD
:1035F0001044817104EB840000EBC4020B48401DB1
:103600001044C67104EB840000EBC4020748401D5F
:1036100010440172601CC4B2202CFFF67AAF03483C
:1036200000F0E0FCBDE8F08792020020A029002015
:103630004F100020B406002010B504460A202F4980
:1036400008702FA12D48401CFCF774FF04202B4963
:10365000C8722EA129480C30FCF76CFF20202749A6
:1036600008740846407C20F0030048740846407CFB
:1036700020F0040048740846407C20F00800083020
:1036800048740846407C20F010001030487408460A
:10369000407C20F0200048740846407C20F0400028
:1036A0004030487400211548B0F8110061F3CF1084
:1036B0001249A1F811000420C874002008753C20AC
:1036C000A1F81500C8210D48C17564210176322189
:1036D000417601200E49087010210D48401CFCF76E
:1036E000E3FF0C4804604FF416500A49486040213B
:1036F00008480830FCF7D8FF10BD00001810002063
:103700004D6F766542726F616400000077766400E9
:10371000361000204710002010B50020044981F821
:10372000780081F8790078210148FCF7BDFF10BDD1
:1037300090180020014600200A7802F001021AB118
:103740000A7840EA920006E00A7840EA92004A7855
:10375000520840EA8210704738B503460024002022
:1037600000901D48027DB2F5005F01DB002038BDEE
:103770003F2A0FDC9DF8000040F001008DF80000AA
:103780009DF80000FC2505EA820528438DF800001D
:10379000012416E09DF80000FC2505EA8205284377
:1037A0008DF800009DF8010040F001008DF8010047
:1037B0009DF80100FE2505EA621528438DF80100F9
:1037C0000224002104E01DF801005854481CC1B235
:1037D000A142F8DB2046CAE7C007002070B50024EC
:1037E000002608261A4D00BF0BE0F0200DF04CFD1E
:1037F000184901EB8400FFF7ADFD45F82400601C7B
:1038000084B2B442F1DB0526134D00240BE0F02016
:103810000DF03AFD114901EB8400FFF79BFD45F8DF
:103820002400601C84B2B442F1DB12260C4D00244B
:103830000BE0F0200DF028FD0A4901EB8400FFF7B2
:1038400089FD45F82400601C84B2B442F1DB70BDF0
:103850001810002000F803083610002000F90308B3
:103860004710002000FA030810B5FEF7A7FA0A482F
:10387000FFF74EFD082209490748FFF772FD0522B0
:1038800007490848FFF76DFD122207490748FFF76F
:1038900068FDFEF739FA10BD00F803081810002083
:1038A0003610002000F903084710002000FA030832
:1038B00010B51A48007806282ED2DFE800F0030A77
:1038C00011181F26FFF7E4FC10B1002013490870FF
:1038D00022E0FFF7D5FB10B10020104908701BE073
:1038E000FFF70AFC10B100200C49087014E0FFF744
:1038F000F5FA10B10020094908700DE0FFF764FCEB
:1039000010B104200549087006E0FFF777FA10B1FE
:1039100000200249087000BF00BF10BD080200204F
:1039200070B504460D46284E2848007800B900E0DE
:10393000274EFFF743FAF4B100BF402130460BF0A9
:10394000E1FF0028F9D02148007848B90221214838
:1039500000F0FDFF012240F225511B480CF001F858
:103960001A48007801280CD1012240F2255118484C
:103970000BF0F7FF05E0002240F2255130460BF036
:10398000F0FFBDB11148007848B9012240F227711B
:103990000D480BF0E6FF02210E4800F0DAFF0B485D
:1039A000007801280CD1012240F2277108480BF061
:1039B000D8FF05E0002240F2277130460BF0D1FF1E
:1039C000FFF7A4FC70BD000000380140F6000020A5
:1039D000004400400008014070B50446054D06480B
:1039E000007800B900E0054D28460CF029F8207059
:1039F000002070BD00380140F60000200044004067
:103A00002DE9F04385B004460E4617461D464FF09B
:103A10000008DFF87C915F48007800B901E0DFF82A
:103A200078915B48844226D1012144F2040005F0DC
:103A30004BFB6015ADF8100018208DF81300032023
:103A40008DF8120004A9554800F0B6FE2015ADF817
:103A5000100004208DF8130004A9504800F0ACFEBB
:103A60000220ADF8100010208DF8130004A94B4877
:103A700000F0A2FE47E0484884421FD101214804DB
:103A800005F002FB0121042005F01EFB0420ADF827
:103A9000100018208DF8130003208DF8120004A9DF
:103AA0003E4800F089FE0820ADF8100048208DF84F
:103AB000130004A9394800F07FFE24E0384884420E
:103AC0001FD10121880405F0DFFA0121082005F04B
:103AD000FBFA2015ADF8100018208DF81300032014
:103AE0008DF8120004A92F4800F066FEE014ADF82E
:103AF000100048208DF8130004A92A4800F05CFE4D
:103B000001E04FF001080096072F0BD0082F0AD1D3
:103B10001DB90020ADF8040003E04FF48050ADF86B
:103B2000040003E002E04FF0010800BF00BF25B130
:103B3000012D06D0022D0ED108E00020ADF80800BE
:103B400009E04FF4C060ADF8080004E04FF4806075
:103B5000ADF8080000BF00BFB8F1000F13D1FFF7A8
:103B60002DF90020ADF80600ADF80C000C20ADF8E2
:103B70000A00694648460BF015FF012148460BF044
:103B8000C7FDFFF7C3FB404605B0BDE8F08300006A
:103B900000380140F60000200044004000080140C9
:103BA00000480040000C014070B50446094D0A4829
:103BB000007800B900E0094D214628460BF08BFF44
:103BC00000BF802128460BF09DFE0028F9D0002080
:103BD00070BD000000380140F600002000440040A5
:103BE0002DE9F043ADF2044D054688460027B9465D
:103BF0000024002600BF25E0285D7E2808D13FB9BB
:103C00002A5D3046711C8EB201A90A54012717E0C3
:103C1000285D7E2809D1012F07D12A5D3046711C0D
:103C20008EB201A90A5400270EE0285D7E2807D035
:103C3000012F05D12A5D3046711C8EB201A90A54AC
:103C4000601C84B24445D7DB00BF41462846FCF7E0
:103C50002BFD56B14FB9002404E001A8005D2855A2
:103C6000601C84B2B442F8DBB14648460DF2044D04
:103C7000BDE8F0832DE9F04707468946002400257A
:103C80000026A246387800F0010010B1BD78FE7819
:103C900001E0FD783E79B84649464046FFF75EF8B8
:103CA0008246812D0BD1012E09D1FEF74DFB044632
:103CB000012C02D00020BDE8F0870120FBE7802D19
:103CC0000AD1012E08D1FEF7ADF90446012C01D02E
:103CD0000020F0E70120EEE7812D0CD1022E0AD161
:103CE00051464046FEF7B8FB0446012C01D00020A7
:103CF000E1E70120DFE7802D0AD1022E08D1FEF78F
:103D000001FA0446012C01D00020D4E70120D2E7BB
:103D1000812D0CD1032E0AD151464046FEF720FAE0
:103D20000446012C01D00020C5E70120C3E7812D06
:103D30000FD1042E0DD151464046FEF76FFA0446CE
:103D40000CB90020B7E7022C01D10220B3E7012013
:103D5000B1E7802D0AD1042E08D1FEF7C5F804463C
:103D6000012C01D00020A6E70120A4E7852D09D170
:103D7000052E07D1FEF770F80446032C00D19AE710
:103D8000012098E7812D0FD1072E0DD151464046D5
:103D9000FEF7FEFA04460CB900208CE7022C01D194
:103DA000022088E7012086E7802D0AD1072E08D15E
:103DB000FEF760F90446012C01D000207BE70120CA
:103DC00079E7852D09D1082E07D1FEF769F8044659
:103DD000032C00D16FE701206DE720466BE7000060
:103DE00000B500F025FB08B1012000BD074890F8A0
:103DF0009000401C0A2190FBF1F201FB1200C1B2BD
:103E0000024880F890100020EFE700000C29002005
:103E100030B503460022002400F00AFB08B101205F
:103E200030BD6E4890F89000401C0A2190FBF1F5DF
:103E300001FB1500C4B235206043694951F83000D8
:103E400018603520604301EBC00000791871002232
:103E5000BFE035206043624901EBC000401D02EB2A
:103E6000820101EBC201415C02EB820000EBC20562
:103E7000581D415535206043594901EBC000401D94
:103E800002EB820101EBC2010844417802EB82009F
:103E900000EBC205581D284441703520604350494D
:103EA00001EBC000401D02EB820101EBC20108449E
:103EB000817802EB820000EBC205581D2844817016
:103EC00035206043464901EBC000401D02EB8201F2
:103ED00001EBC2010844C17802EB820000EBC2058D
:103EE000581D2844C170352060433D4901EBC00096
:103EF000401D02EB820101EBC2010844017902EB93
:103F0000820000EBC205581D284401713520604332
:103F1000334901EBC000401D02EB820101EBC201FD
:103F20000844417902EB820000EBC205581D284489
:103F30004171352060432A4901EBC000401D02EB6E
:103F4000820101EBC2010844817902EB820000EB9F
:103F5000C205581D2844817135206043204901EB7A
:103F6000C000401D02EB820101EBC2010844C1798F
:103F700002EB820000EBC205581D2844C1713520B8
:103F80006043174901EBC000401D02EB820101EBC9
:103F9000C2010844017A02EB820000EBC205581D01
:103FA00028440172352060430D4901EBC000401DDB
:103FB00002EB820101EBC2010844D0F8091002EBC8
:103FC000820000EBC205581D2844C0F80910501C9F
:103FD000C2B2202AFFF63DAF002021E70C290020C5
:103FE0000C19002010B5044600BF00F02FFA00287D
:103FF0007ED0FE4890F89100401C0A2190FBF1F21F
:1040000001FB1200C1B2F94880F8911090F89100BC
:1040100035225043F64A216842F830102179F3489E
:1040200090F8910035225043F14A02EBC000017133
:104030000023DFE003EB830000EBC301601D415C64
:10404000EA4890F8910035225043E94A02EBC0005B
:10405000401D03EB830202EBC302815403EB830098
:1040600000EBC301601D08444178E04890F89100DE
:1040700035225043DE4A02EBC000401D03EB8302B1
:1040800002EBC3021044417003EB830000EBC30159
:10409000601D08448178D54890F89100352250433E
:1040A000D34A02EBC000401D03EB830202EBC302C4
:1040B0001044817003EB830000EBC301601D0844D2
:1040C000C178CA4890F8910035225043C84A02EBA3
:1040D000C000401D03EB830202EBC3021044C17019
:1040E00003EB830000EBC301601D0844017900E08D
:1040F00091E0BE4890F8910035225043BC4A02EB53
:10410000C000401D03EB830202EBC30210440171A7
:1041100003EB830000EBC301601D08444179B34801
:1041200090F8910035225043B14A02EBC000401D87
:1041300003EB830202EBC3021044417103EB8300E3
:1041400000EBC301601D08448179A84890F89100F4
:1041500035225043A64A02EBC000401D03EB830208
:1041600002EBC3021044817103EB830000EBC30137
:10417000601D0844C1799D4890F891003522504354
:104180009B4A02EBC000401D03EB830202EBC3021B
:104190001044C17103EB830000EBC301601D0844B0
:1041A000017A924890F8910035225043904A02EBF0
:1041B000C000401D03EB830202EBC30210440172F6
:1041C00003EB830000EBC301601D0844D0F8091025
:1041D000864890F8910035225043854A02EBC00092
:1041E000401D03EB830202EBC3021044C0F8091028
:1041F000581CC3B2202BFFF61DAF7C4890F89000EE
:10420000401C0A2190FBF1F201FB1200C1B2774879
:1042100080F8901006E1754890F89100401C0A2142
:1042200090FBF1F201FB1200C1B2704880F89110CE
:1042300090F89100352250436D4A216842F83010C1
:1042400021796A4890F8910035225043684A02EB80
:10425000C00001710023E2E003EB830000EBC30127
:10426000601D415C614890F8910035225043604ADE
:1042700002EBC000401D03EB830202EBC30281543A
:1042800003EB830000EBC301601D084441785748ED
:1042900090F8910035225043554A02EBC000401D72
:1042A00003EB830202EBC3021044417003EB830073
:1042B00000EBC301601D084481784C4890F89100E0
:1042C000352250434A4A02EBC000401D03EB8302F3
:1042D00002EBC3021044817003EB830000EBC301C7
:1042E000601D0844C178414890F891003522504340
:1042F0003F4A02EBC000401D03EB830202EBC30206
:104300001044C17003EB830000EBC301601D08443F
:104310000179364890F8910035225043344A02EB37
:10432000C000401D03EB830202EBC3021044017185
:1043300003EB830000EBC301601D084441792B4867
:1043400090F8910035225043294A02EBC000401DED
:1043500003EB830202EBC3021044417103EB8300C1
:1043600000EBC301601D08448179204890F891005A
:10437000352250431E4A02EBC000401D03EB83026E
:1043800002EBC3021044817103EB830000EBC30115
:10439000601D0844C179154890F8910035225043BA
:1043A000134A02EBC000401D03EB830202EBC30281
:1043B0001044C17103EB830000EBC301601D08448E
:1043C000017A0A4890F8910035225043084A02EBDE
:1043D000C000401D03EB830202EBC30210440172D4
:1043E00003EB830000EBC301601D03E00C290020F8
:1043F0000C1900200844D0F809100B4890F89100DF
:1044000035225043094A02EBC000401D03EB8302F2
:1044100002EBC3021044C0F80910581CC3B2202B91
:10442000FFF61AAF10BD00000C2900200C19002067
:10443000054890F8901090F89100814201D1012038
:1044400070470020FCE700000C290020084890F885
:104450009100401C0A2190FBF1F201FB120104487B
:1044600090F89000814201D1012070470020FCE7C4
:104470000C29002070B50446124D1348007800B98D
:1044800000E0124D40F2277120460BF044FA48B18B
:10449000AC4201D1FEF7AEFF40F2277120460BF08F
:1044A0002DF90EE040F2255120460BF034FA40B1D0
:1044B000AC4201D1FEF76EFF40F2255120460BF0D1
:1044C0001DF970BD00380140F60000200044004096
:1044D00010B502460B4600F0CDF808B1012010BD22
:1044E0000D4890F87800401C1E2190FBF1F401FB70
:1044F0001400094981F87800084690F8780031F8EE
:1045000020001080084690F8780001EB8000807849
:1045100018700020E3E700009018002000B500F0BC
:10452000A9F808B1012000BD064890F87800401CA9
:104530001E2190FBF1F201FB1200024981F8780084
:104540000020F0E79018002030B502460B4600240A
:1045500000F090F808B1012030BD0A4890F87800CA
:10456000401C1E2190FBF1F501FB1500C4B205486B
:1045700030F824001080034800EB84008078187025
:104580000020E9E79018002010B503460C4600F023
:104590007FF818B31D4890F87900401C1E2190FB4D
:1045A000F1F201FB1200194981F87900084690F8F0
:1045B000790021F82030084690F8790001EB80005E
:1045C0008470084690F87800401C1E2190FBF1F2A0
:1045D00001FB12000D4981F8780016E00B4890F8B5
:1045E0007900401C1E2190FBF1F201FB12000749EB
:1045F00081F87900084690F8790021F820300846C3
:1046000090F8790001EB8000847010BD90180020B4
:1046100014480078F8B91448007808BB13480078AB
:10462000401C1249087008460078022818DB002058
:10463000087001200C4908700D480078401C0C4996
:1046400008700846007803280ADB00200870012063
:104650000449087004E00020044908700449087007
:1046600070470000090200200A020020900200208A
:1046700091020020054890F87800044991F87910DB
:10468000884201D1012070470020FCE790180020EB
:10469000084890F87900401C1E2190FBF1F201FBC4
:1046A0001200044991F87810884201D10120704726
:1046B0000020FCE79018002008B549F6F010ADF88E
:1046C000000010208DF8030003208DF802006946D9
:1046D000264800F071F840F2FD30ADF800001020DF
:1046E0008DF8030003208DF802006946204800F091
:1046F00063F81220ADF8000048208DF803006946E9
:104700001C4800F059F84FF40050ADF8000010209C
:104710008DF8030003208DF802006946154800F06B
:104720004BF80120ADF8000004208DF80300694625
:104730000E4800F041F84FF48040ADF8000004202E
:104740008DF8030069460A4800F036F84BF2020083
:10475000ADF8000003208DF8020010208DF8030052
:104760006946034800F028F808BD00000008014031
:10477000000C01400010014030B500228B071C0FD7
:104780000F2303FA04F20B4B8C1053F8243093439D
:10479000084C8D1044F8253023468C1053F82430F3
:1047A0008C07240F00FA04F42343024C8D1044F8C4
:1047B000253030BD080001402DE9F04102460025BA
:1047C0000026002000230024002791F803C00CF0ED
:1047D0000F0591F803C00CF0100CBCF1000F03D0D2
:1047E00091F802C04CEA050591F800C0BCF1000F39
:1047F00030D0146800202AE04FF0010C0CFA00F3CE
:10480000B1F800C00CEA03069E421FD183004FF0AE
:104810000F0C0CFA03F7BC4305FA03FC4CEA040442
:1048200091F803C0BCF1280F05D14FF0010C0CFA30
:1048300000FCC2F814C091F803C0BCF1480F05D1C8
:104840004FF0010C0CFA00FCC2F810C0401C082804
:10485000D2D31460B1F800C0BCF1FF0F34DD54684E
:1048600000202EE000F1080C4FF0010808FA0CF3CC
:10487000B1F800C00CEA03069E4221D183004FF03C
:104880000F0C0CFA03F7BC4305FA03FC4CEA0404D2
:1048900091F803C0BCF1280F05D100F1080C08FA0B
:1048A0000CF8C2F8148091F803C0BCF1480F07D18E
:1048B00000F1080C4FF0010808FA0CF8C2F810805B
:1048C000401C0828CED35460BDE8F081F0B50A46FC
:1048D0000023002400210025174E7168C0F3034512
:1048E00083B200F44016B6F5401F08D121F0706184
:1048F000114E766826F070660F4F7E6012E000F46D
:104900008016B6F5801F06D1032606FA05F4A143EA
:1049100041F0706106E0460D360103FA06F6B14338
:1049200041F0706122B1460D360103FA06F63143BB
:10493000014E7160F0BD0000000001400246002001
:1049400093680B400BB1012000E0002070474161EB
:104950007047016170470000004870470C0A002052
:10496000F0B58DB004463022224901A8FBF76AFE5B
:104970006069451E642195FBF1F12846EA1705EBB5
:104980009272C1EBA2014FF4C87295FBF2F28F183C
:104990006069C11700EB91718910A0EB810191B999
:1049A0006422616991FBF2F302FB131131B99200A9
:1049B000616991FBF2F302FB131121B9216902290C
:1049C00001DD012600E0002640F26D1005FB0071BC
:1049D0002069401E01AA52F820000844E1680844FA
:1049E0000644072096FBF0F100FB1160A0610DB0BA
:1049F000F0BD00006C4B010870477047704770476E
:104A0000704700000246002109E0084830F8110014
:104A1000904202D1481C80B27047481C81B22029C4
:104A2000F3DB01D11046F7E71046F5E73C0800201C
:104A300010B51B48007E072826D2DFE800F0040DE1
:104A40001115191D2100164890F82200012802D1E5
:104A500014498868804720E01249086980471CE0B3
:104A600010498869804718E00E49086A804714E0B9
:104A70000C49886A804710E00A49086B80470CE0BF
:104A80000849886B804708E0054890F82200012813
:104A900002D104498868804700BF00BF10BD0000F4
:104AA000C0070020C401002010B50146002000BF4F
:104AB0000EE031F81020C0EBC003074C24F823208F
:104AC0000022C0EBC00304EB83035A80421CD0B227
:104AD0002028EEDB10BD0000980C00202DE9F041ED
:104AE00004460D4616460027C4EBC400904901EB6E
:104AF00080004088002851D1C4EBC40001EB800045
:104B00004580012E25D18B480078844207DA8A4AF5
:104B100032F81410894A52F82400FFF71AFFC4EB48
:104B2000C400834901EB8000007A012810D0E1B273
:104B3000834803F0C1FF0120C4EBC4017C4A02EBAF
:104B4000810108720020C4EBC40102EB81014860BE
:104B5000ECE078480078844207DA774A32F814109B
:104B6000764A52F82400FFF7F2FEC4EBC400704905
:104B700001EB8000007A0028EAD0E1B2704803F02F
:104B8000B6FF0020C4EBC401694A02EB8101087240
:104B9000C4EBC40102EB81014860C7E0C4EBC40070
:104BA000634901EB80004088A8420FDAC4EBC400DF
:104BB00001EB80004088281A642825DAC4EBC40081
:104BC00001EB80004088281A87B21DE0C4EBC400C6
:104BD000574901EB80004088A84215DDC4EBC400B2
:104BE00001EB800040884FF6FF71081A28446428C2
:104BF0000ADAC4EBC4004E4901EB800040884FF64E
:104C0000FF71081A284487B2C4EBC400484901EB7D
:104C100080004580C4EBC40001EB80004673C4EB08
:104C2000C40001EB8000007B00285BD1002F4BD13A
:104C3000012E25D13F480078844207DA3E4A32F8F7
:104C400014103E4A52F82400FFF783FEC4EBC40060
:104C5000374901EB8000007A012867D0E1B238487B
:104C600003F02AFF0120C4EBC401314A02EB8101A9
:104C700008720020C4EBC40102EB8101486055E0DA
:104C80002C480078844207DA2B4A32F814102B4A59
:104C900052F82400FFF75BFEC4EBC400244901EB8B
:104CA0008000007AF0B3E1B2254803F020FF002035
:104CB000C4EBC4011E4A02EB81010872C4EBC401BB
:104CC00002EB8101486031E0C4EBC400184901EBFC
:104CD000800007610120C4EBC401154A02EB810189
:104CE000087323E0C4EBC400114901EB8000406964
:104CF0003844C4EBC4010E4A02EB81014861C4EBA5
:104D0000C400114601EB80004069642805D364208B
:104D1000C4EBC40102EB810148610120C4EBC40172
:104D2000034A00E002E002EB81010873BDE8F08174
:104D3000980C0020550000209C0000205C00002002
:104D4000B869002010B5002400BF87E1C4EBC4009F
:104D5000C44931F8200000287DD0C4EBC40001EB29
:104D60008000007A012844D1C4EBC40001EB80002C
:104D70004068401CC4EBC401BA4A02EB81014860A0
:104D8000C4EBC400114601EB80004168B648008CBA
:104D900000EB4002C2EBC010B1EBC00F29D3B34807
:104DA0000078844207DAB24A32F81410B14A52F855
:104DB0002400FFF7CCFDC4EBC400AA4901EB80003E
:104DC000007A78B12146AC4803F091FE0020C4EB94
:104DD000C401A44A02EB81010872C4EBC40102EBD6
:104DE000810148600020C4EBC4019E4A02EB8101AE
:104DF0004873C4EBC4009B4901EB8000007B002892
:104E0000AAD0C4EBC40001EB8000806920BB9748A6
:104E10000078844207DA964A32F81410954A52F81C
:104E20002400FFF794FDC4EBC4008E4901EB800021
:104E3000007AE8B32146904803F059FE0020C4EB05
:104E4000C401884A02EB81010872C4EBC40102EB81
:104E50008101486034E0D0E0C4EBC400814901EB3B
:104E6000800080698049C98B01EB8101B0EB810F23
:104E700026D17E480078844207DA7D4A32F8141041
:104E80007C4A52F82400FFF764FDC4EBC400754966
:104E900001EB8000007A012812D02146764803F009
:104EA0000BFE0120C4EBC4016E4A02EB810100E05D
:104EB00006E008720020C4EBC40102EB81014860E7
:104EC000C4EBC400674901EB80008069401CC4EB5F
:104ED000C401644A02EB810188616348C08B00EB26
:104EE000800080006049498B01EB810100EB81006B
:104EF000401CC4EBC40102EB8101896988427CD863
:104F00000020C4EBC40102EB81018861C4EBC40042
:104F1000114601EB80000069401EC4EBC40102EBA6
:104F200081010861C4EBC400114601EB80000069F7
:104F300000287DD1C4EBC40001EB8000407B18BB8E
:104F40004A480078844207DA494A32F81410494A3C
:104F500052F82400FFF7FBFCC4EBC400414901EB0D
:104F60008000007AA8B32146434803F0C0FD00202A
:104F7000C4EBC4013B4A02EB81010872C4EBC401DB
:104F800002EB8101486024E038480078844207DA67
:104F9000374A32F81410374A52F82400FFF7D9FC88
:104FA000C4EBC4002F4901EB8000007A012810D027
:104FB0002146314803F080FD0120C4EBC401294A99
:104FC00002EB810108720020C4EBC40102EB8101F5
:104FD00048600020C4EBC401224A02EB8101086151
:104FE000C4EBC40102EB81010873C4EBC400114699
:104FF00001EB8000406900B100E02DE0C4EBC4008B
:1050000001EB80000069C4EBC40102EB8101496936
:105010000844C4EBC40102EB810108610020C4EB29
:10502000C40102EB810148610120C4EBC40100E02E
:1050300003E002EB810108730EE0C4EBC4000949F0
:1050400001EB80000069642806D96420C4EBC40128
:10505000044A02EB81010861601CC4B2202CFFF6F7
:1050600075AE10BD980C0020C00700205500002030
:105070009C0000205C000020B86900202DE9F04170
:1050800004460D4617460026C4EBC400684901EBF0
:1050900080004088002851D1C4EBC40001EB80009F
:1050A0004580012F25D163480078844207DA624A9F
:1050B00032F81410614A52F82400FFF74AFCC4EB9E
:1050C000C4005B4901EB8000007A012810D0E1B2F6
:1050D0005B4803F0F1FC0120C4EBC401544A02EB2D
:1050E000810108720020C4EBC40102EB8101486019
:1050F0009CE050480078844207DA4F4A32F8141096
:105100004E4A52F82400FFF722FCC4EBC400484981
:1051100001EB8000007A00280FD0E1B2484803F08C
:10512000E6FC0020C4EBC401414A02EB8101087295
:10513000C4EBC40102EB8101486077E0C4EBC4001A
:105140003B4901EB80004088A8420FDAC4EBC40061
:1051500001EB80004088281A642825DAC4EBC400DB
:1051600001EB80004088281A86B21DE0C4EBC40021
:105170002F4901EB80004088A84215DDC4EBC40034
:1051800001EB800040884FF6FF71081A284464281C
:105190000ADAC4EBC400264901EB800040884FF6D0
:1051A000FF71081A284486B2C4EBC400204901EB01
:1051B00080004580C4EBC40001EB8000007B98B9FF
:1051C000A6B3C4EBC40001EB800006610020C4EB71
:1051D000C401174A02EB810148730120C4EBC401EA
:1051E00002EB8101087321E0C4EBC400104901EB1C
:1051F000800040693044C4EBC4010D4A02EB8101D8
:105200004861C4EBC400114601EB8000406964288A
:1052100005D36420C4EBC40102EB81014861002086
:10522000C4EBC401024A02EB81014873BDE8F0817E
:10523000980C0020550000209C0000205C000020FD
:10524000B869002010B5002400BF08E1C4EBC40019
:10525000854931F8200000287ED0C4EBC40001EB62
:105260008000007B0028F7D0C4EBC40001EB800075
:10527000806928BB7D480078844207DA7C4A32F88E
:1052800014107C4A52F82400FFF763FBC4EBC400FF
:10529000754901EB8000007A012841D0214676480B
:1052A00003F00AFC0120C4EBC4016F4A02EB810148
:1052B00008720020C4EBC40102EB810148602FE0BA
:1052C000C4EBC400684901EB800080696B49498BDD
:1052D00001EB8101B0EB810F22D164480078844258
:1052E00007DA634A32F81410624A52F82400FFF7D2
:1052F0002EFBC4EBC4005C4901EB8000007A78B15E
:1053000021465D4803F0F3FB0020C4EBC401564A7C
:1053100002EB81010872C4EBC40102EB8101486019
:10532000C4EBC400504901EB80008069401CC4EB11
:10533000C4014D4A02EB810188615048408B00EB6B
:10534000800080004D49C98B01EB810100EB810099
:10535000401CC4EBC40100E06FE002EB81018969ED
:1053600088427AD80020C4EBC40102EB8101886135
:10537000C4EBC400114601EB80000069401EC4EB81
:10538000C40102EB81010861C4EBC400114601EBCA
:1053900080000069002851D1C4EBC40102EB8101F7
:1053A0000861C4EBC40102EB810108732F48007847
:1053B000844207DA2E4A32F814102E4A52F824009A
:1053C000FFF7C5FAC4EBC400274901EB8000007A5F
:1053D00078B12146284803F08AFB0020C4EBC401C1
:1053E000214A02EB81010872C4EBC40102EB810186
:1053F0004860C4EBC4001C4901EB80004069E0B187
:10540000C4EBC40001EB80000069C4EBC401164A80
:1054100002EB810149690844C4EBC40102EB81013C
:1054200008610020C4EBC40102EB81014861012046
:10543000C4EBC40102EB810108730EE0C4EBC400AD
:10544000094901EB80000069642806D96420C4EB97
:10545000C401054A02EB81010861601CC4B2202C22
:10546000FFF6F4AE10BD0000980C0020550000209F
:105470009C0000205C000020B8690020C0070020CC
:105480002DE9F04104460D4617460026C4EBC40042
:10549000684901EB80004088002851D1C4EBC4006A
:1054A00001EB80004580012F25D1634800788442BC
:1054B00007DA624A32F81410614A52F82400FFF702
:1054C00048FAC4EBC4005B4901EB8000007A012874
:1054D00010D0E1B25B4803F0EFFA0120C4EBC40145
:1054E000544A02EB810108720020C4EBC40102EBB4
:1054F000810148609CE050480078844207DA4F4AB6
:1055000032F814104E4A52F82400FFF720FAC4EB88
:10551000C400484901EB8000007A00280FD0E1B2B6
:10552000484803F0E4FA0020C4EBC401414A02EB0E
:1055300081010872C4EBC40102EB8101486077E08D
:10554000C4EBC4003B4901EB80004088A8420FDA5D
:10555000C4EBC40001EB80004088281A642825DAD7
:10556000C4EBC40001EB80004088281A86B21DE01D
:10557000C4EBC4002F4901EB80004088A84215DD30
:10558000C4EBC40001EB800040884FF6FF71081A9D
:10559000284464280ADAC4EBC400264901EB8000E1
:1055A00040884FF6FF71081A284486B2C4EBC40045
:1055B000204901EB80004580C4EBC40001EB800072
:1055C000007B98B9A6B3C4EBC40001EB8000066170
:1055D0000020C4EBC401174A02EB8101487301208B
:1055E000C4EBC40102EB8101087321E0C4EBC400E9
:1055F000104901EB800040693044C4EBC4010D4AFE
:1056000002EB81014861C4EBC400114601EB80004C
:105610004069642805D36420C4EBC40102EB810116
:1056200048610020C4EBC401024A02EB81014873C7
:10563000BDE8F081980C0020550000209C0000205F
:105640005C000020B869002010B5002400BF08E10C
:10565000C4EBC400854931F8200000287ED0C4EB9B
:10566000C40001EB8000007B0028F7D0C4EBC4002D
:1056700001EB8000806928BB7D480078844207DA0E
:105680007C4A32F814107C4A52F82400FFF761F982
:10569000C4EBC400754901EB8000007A012841D0B9
:1056A0002146764803F008FA0120C4EBC4016F4A92
:1056B00002EB810108720020C4EBC40102EB8101FE
:1056C00048602FE0C4EBC400684901EB80008069AA
:1056D0006B49898B01EB8101B0EB810F22D16448CA
:1056E0000078844207DA634A32F81410624A52F8AA
:1056F0002400FFF72CF9C4EBC4005C4901EB8000E7
:10570000007A78B121465D4803F0F1F90020C4EB3E
:10571000C401564A02EB81010872C4EBC40102EBDA
:1057200081014860C4EBC400504901EB80008069EE
:10573000401CC4EBC4014D4A02EB81018861504812
:10574000808B00EB800080004D49C98B01EB81010B
:1057500000EB8100401CC4EBC40100E06FE002EBF1
:105760008101896988427AD80020C4EBC40102EB28
:1057700081018861C4EBC400114601EB800000691F
:10578000401EC4EBC40102EB81010861C4EBC400FC
:10579000114601EB80000069002851D1C4EBC4011F
:1057A00002EB81010861C4EBC40102EB81010873C3
:1057B0002F480078844207DA2E4A32F814102E4A15
:1057C00052F82400FFF7C3F8C4EBC400274901EBEB
:1057D0008000007A78B12146284803F088F900203B
:1057E000C4EBC401214A02EB81010872C4EBC4017D
:1057F00002EB81014860C4EBC4001C4901EB80004E
:105800004069E0B1C4EBC40001EB80000069C4EB67
:10581000C401164A02EB810149690844C4EBC40182
:1058200002EB810108610020C4EBC40102EB81019D
:1058300048610120C4EBC40102EB810108730EE052
:10584000C4EBC400094901EB80000069642806D953
:105850006420C4EBC401054A02EB81010861601CAD
:10586000C4B2202CFFF6F4AE10BD0000980C00204E
:10587000550000209C0000205C000020B86900203A
:10588000C00700202DE9F04104460E4617460025CA
:10589000C4EBC400C14901EB80004088002851D10D
:1058A000C4EBC40001EB80004680012F25D1BC4829
:1058B0000078844207DABB4A32F81410BA4A52F828
:1058C0002400FFF746F8C4EBC400B44901EB8000A4
:1058D000007A012810D0E1B2B44803F0EDF80120BD
:1058E000C4EBC401AD4A02EB810108720020C4EB95
:1058F000C40102EB810148604DE1A948007884426F
:1059000007DAA84A32F81410A74A52F82400FFF721
:105910001EF8C4EBC400A14901EB8000007A002806
:10592000EAD0E1B2A14803F0E2F80020C4EBC401E0
:105930009A4A02EB81010872C4EBC40102EB8101B7
:10594000486028E1C4EBC400944901EB8000408822
:10595000B0420FDAC4EBC40001EB80004088301A7B
:10596000642825DAC4EBC40001EB80004088301ABB
:1059700085B21DE0C4EBC400884901EB800040887B
:10598000B04215DDC4EBC40001EB800040884FF647
:10599000FF71081A304464280ADAC4EBC4007F4956
:1059A00001EB800040884FF6FF71081A304485B241
:1059B000C4EBC400794901EB80004680C4EBC4000D
:1059C00001EB8000007B002858D1C5B3012F15D111
:1059D0000120C0EB4500C4EBC401704A02EB810119
:1059E00008610120C4EBC40102EB81014872002070
:1059F000C4EBC40102EB8101887212E06800C4EBC1
:105A0000C401664A02EB810108610020C4EBC401B5
:105A100002EB810148720120C4EBC40102EB810159
:105A200088720020C4EBC4015C4A02EB8101487318
:105A30000120C4EBC40102EB81010873ABE0FFE776
:105A40000120C4EBC401554A02EB8101086100202A
:105A5000C4EBC40102EB81014872C4EBC40102EB48
:105A600081018872C4EBC40102EB810148730120FB
:105A7000C4EBC40102EB810108738CE085B3012FF4
:105A80002FD1C4EBC400454901EB800040690121DE
:105A9000C1EB45010844C4EBC401404A02EB81015B
:105AA0004861C4EBC400114601EB80004069C8287E
:105AB0000ED3C4EBC40001EB800040690121C1EBAF
:105AC0004501401AC4EBC40102EB810148615BE06F
:105AD0000120C4EBC401314A02EB8101C87253E0DA
